{
  "address": "0x85D42c56E590443f61E47a6B179C426A390f95f2",
  "abi": [
    {
      "inputs": [
        {
          "internalType": "string",
          "name": "name",
          "type": "string"
        },
        {
          "internalType": "string",
          "name": "symbol",
          "type": "string"
        }
      ],
      "stateMutability": "nonpayable",
      "type": "constructor"
    },
    {
      "anonymous": false,
      "inputs": [
        {
          "indexed": true,
          "internalType": "address",
          "name": "owner",
          "type": "address"
        },
        {
          "indexed": true,
          "internalType": "address",
          "name": "approved",
          "type": "address"
        },
        {
          "indexed": true,
          "internalType": "uint256",
          "name": "tokenId",
          "type": "uint256"
        }
      ],
      "name": "Approval",
      "type": "event"
    },
    {
      "anonymous": false,
      "inputs": [
        {
          "indexed": true,
          "internalType": "address",
          "name": "owner",
          "type": "address"
        },
        {
          "indexed": true,
          "internalType": "address",
          "name": "operator",
          "type": "address"
        },
        {
          "indexed": false,
          "internalType": "bool",
          "name": "approved",
          "type": "bool"
        }
      ],
      "name": "ApprovalForAll",
      "type": "event"
    },
    {
      "anonymous": false,
      "inputs": [
        {
          "indexed": true,
          "internalType": "address",
          "name": "from",
          "type": "address"
        },
        {
          "indexed": true,
          "internalType": "address",
          "name": "to",
          "type": "address"
        },
        {
          "indexed": true,
          "internalType": "uint256",
          "name": "tokenId",
          "type": "uint256"
        }
      ],
      "name": "Transfer",
      "type": "event"
    },
    {
      "inputs": [
        {
          "internalType": "address",
          "name": "to",
          "type": "address"
        },
        {
          "internalType": "uint256",
          "name": "tokenId",
          "type": "uint256"
        }
      ],
      "name": "approve",
      "outputs": [],
      "stateMutability": "nonpayable",
      "type": "function"
    },
    {
      "inputs": [
        {
          "internalType": "address",
          "name": "owner",
          "type": "address"
        }
      ],
      "name": "balanceOf",
      "outputs": [
        {
          "internalType": "uint256",
          "name": "",
          "type": "uint256"
        }
      ],
      "stateMutability": "view",
      "type": "function"
    },
    {
      "inputs": [
        {
          "internalType": "address",
          "name": "_claimer",
          "type": "address"
        },
        {
          "internalType": "string",
          "name": "_tokenURI",
          "type": "string"
        }
      ],
      "name": "claimToken",
      "outputs": [
        {
          "internalType": "uint256",
          "name": "",
          "type": "uint256"
        }
      ],
      "stateMutability": "nonpayable",
      "type": "function"
    },
    {
      "inputs": [
        {
          "internalType": "uint256",
          "name": "tokenId",
          "type": "uint256"
        }
      ],
      "name": "getApproved",
      "outputs": [
        {
          "internalType": "address",
          "name": "",
          "type": "address"
        }
      ],
      "stateMutability": "view",
      "type": "function"
    },
    {
      "inputs": [
        {
          "internalType": "address",
          "name": "owner",
          "type": "address"
        },
        {
          "internalType": "address",
          "name": "operator",
          "type": "address"
        }
      ],
      "name": "isApprovedForAll",
      "outputs": [
        {
          "internalType": "bool",
          "name": "",
          "type": "bool"
        }
      ],
      "stateMutability": "view",
      "type": "function"
    },
    {
      "inputs": [],
      "name": "name",
      "outputs": [
        {
          "internalType": "string",
          "name": "",
          "type": "string"
        }
      ],
      "stateMutability": "view",
      "type": "function"
    },
    {
      "inputs": [
        {
          "internalType": "uint256",
          "name": "tokenId",
          "type": "uint256"
        }
      ],
      "name": "ownerOf",
      "outputs": [
        {
          "internalType": "address",
          "name": "",
          "type": "address"
        }
      ],
      "stateMutability": "view",
      "type": "function"
    },
    {
      "inputs": [
        {
          "internalType": "address",
          "name": "from",
          "type": "address"
        },
        {
          "internalType": "address",
          "name": "to",
          "type": "address"
        },
        {
          "internalType": "uint256",
          "name": "tokenId",
          "type": "uint256"
        }
      ],
      "name": "safeTransferFrom",
      "outputs": [],
      "stateMutability": "nonpayable",
      "type": "function"
    },
    {
      "inputs": [
        {
          "internalType": "address",
          "name": "from",
          "type": "address"
        },
        {
          "internalType": "address",
          "name": "to",
          "type": "address"
        },
        {
          "internalType": "uint256",
          "name": "tokenId",
          "type": "uint256"
        },
        {
          "internalType": "bytes",
          "name": "data",
          "type": "bytes"
        }
      ],
      "name": "safeTransferFrom",
      "outputs": [],
      "stateMutability": "nonpayable",
      "type": "function"
    },
    {
      "inputs": [
        {
          "internalType": "address",
          "name": "operator",
          "type": "address"
        },
        {
          "internalType": "bool",
          "name": "approved",
          "type": "bool"
        }
      ],
      "name": "setApprovalForAll",
      "outputs": [],
      "stateMutability": "nonpayable",
      "type": "function"
    },
    {
      "inputs": [
        {
          "internalType": "bytes4",
          "name": "interfaceId",
          "type": "bytes4"
        }
      ],
      "name": "supportsInterface",
      "outputs": [
        {
          "internalType": "bool",
          "name": "",
          "type": "bool"
        }
      ],
      "stateMutability": "view",
      "type": "function"
    },
    {
      "inputs": [],
      "name": "symbol",
      "outputs": [
        {
          "internalType": "string",
          "name": "",
          "type": "string"
        }
      ],
      "stateMutability": "view",
      "type": "function"
    },
    {
      "inputs": [
        {
          "internalType": "uint256",
          "name": "tokenId",
          "type": "uint256"
        }
      ],
      "name": "tokenURI",
      "outputs": [
        {
          "internalType": "string",
          "name": "",
          "type": "string"
        }
      ],
      "stateMutability": "view",
      "type": "function"
    },
    {
      "inputs": [],
      "name": "totalSupply",
      "outputs": [
        {
          "internalType": "uint256",
          "name": "",
          "type": "uint256"
        }
      ],
      "stateMutability": "view",
      "type": "function"
    },
    {
      "inputs": [
        {
          "internalType": "address",
          "name": "from",
          "type": "address"
        },
        {
          "internalType": "address",
          "name": "to",
          "type": "address"
        },
        {
          "internalType": "uint256",
          "name": "tokenId",
          "type": "uint256"
        }
      ],
      "name": "transferFrom",
      "outputs": [],
      "stateMutability": "nonpayable",
      "type": "function"
    }
  ],
  "transactionHash": "0xcf22a322d0ce280cf593daa0ba46661d6b18856d47e8be6358e850c847d5fdbf",
  "args": [
    "Metis",
    "MET"
  ],
  "solcInputHash": "25d62cf5f6e9f059d1a00f3f2af34156",
  "bytecode": "0x60806040523480156200001157600080fd5b50604051620029e4380380620029e48339818101604052810190620000379190620001a3565b818181600090805190602001906200005192919062000075565b5080600190805190602001906200006a92919062000075565b5050505050620003ac565b8280546200008390620002bd565b90600052602060002090601f016020900481019282620000a75760008555620000f3565b82601f10620000c257805160ff1916838001178555620000f3565b82800160010185558215620000f3579182015b82811115620000f2578251825591602001919060010190620000d5565b5b50905062000102919062000106565b5090565b5b808211156200012157600081600090555060010162000107565b5090565b60006200013c620001368462000251565b62000228565b9050828152602081018484840111156200015b576200015a6200038c565b5b6200016884828562000287565b509392505050565b600082601f83011262000188576200018762000387565b5b81516200019a84826020860162000125565b91505092915050565b60008060408385031215620001bd57620001bc62000396565b5b600083015167ffffffffffffffff811115620001de57620001dd62000391565b5b620001ec8582860162000170565b925050602083015167ffffffffffffffff81111562000210576200020f62000391565b5b6200021e8582860162000170565b9150509250929050565b60006200023462000247565b9050620002428282620002f3565b919050565b6000604051905090565b600067ffffffffffffffff8211156200026f576200026e62000358565b5b6200027a826200039b565b9050602081019050919050565b60005b83811015620002a75780820151818401526020810190506200028a565b83811115620002b7576000848401525b50505050565b60006002820490506001821680620002d657607f821691505b60208210811415620002ed57620002ec62000329565b5b50919050565b620002fe826200039b565b810181811067ffffffffffffffff8211171562000320576200031f62000358565b5b80604052505050565b7f4e487b7100000000000000000000000000000000000000000000000000000000600052602260045260246000fd5b7f4e487b7100000000000000000000000000000000000000000000000000000000600052604160045260246000fd5b600080fd5b600080fd5b600080fd5b600080fd5b6000601f19601f8301169050919050565b61262880620003bc6000396000f3fe608060405234801561001057600080fd5b50600436106100f55760003560e01c80636352211e11610097578063a22cb46511610066578063a22cb46514610298578063b88d4fde146102b4578063c87b56dd146102d0578063e985e9c514610300576100f5565b80636352211e146101ea57806370a082311461021a578063931b33851461024a57806395d89b411461027a576100f5565b8063095ea7b3116100d3578063095ea7b31461017857806318160ddd1461019457806323b872dd146101b257806342842e0e146101ce576100f5565b806301ffc9a7146100fa57806306fdde031461012a578063081812fc14610148575b600080fd5b610114600480360381019061010f9190611982565b610330565b6040516101219190611cd6565b60405180910390f35b610132610412565b60405161013f9190611cf1565b60405180910390f35b610162600480360381019061015d91906119dc565b6104a4565b60405161016f9190611c6f565b60405180910390f35b610192600480360381019061018d9190611942565b6104ea565b005b61019c610602565b6040516101a99190611eb3565b60405180910390f35b6101cc60048036038101906101c791906117d0565b61060c565b005b6101e860048036038101906101e391906117d0565b61066c565b005b61020460048036038101906101ff91906119dc565b61068c565b6040516102119190611c6f565b60405180910390f35b610234600480360381019061022f9190611763565b61073e565b6040516102419190611eb3565b60405180910390f35b610264600480360381019061025f91906118e6565b6107f6565b6040516102719190611eb3565b60405180910390f35b610282610833565b60405161028f9190611cf1565b60405180910390f35b6102b260048036038101906102ad91906118a6565b6108c5565b005b6102ce60048036038101906102c99190611823565b6108db565b005b6102ea60048036038101906102e591906119dc565b61093d565b6040516102f79190611cf1565b60405180910390f35b61031a60048036038101906103159190611790565b610a2a565b6040516103279190611cd6565b60405180910390f35b60007f80ac58cd000000000000000000000000000000000000000000000000000000007bffffffffffffffffffffffffffffffffffffffffffffffffffffffff1916827bffffffffffffffffffffffffffffffffffffffffffffffffffffffff191614806103fb57507f5b5e139f000000000000000000000000000000000000000000000000000000007bffffffffffffffffffffffffffffffffffffffffffffffffffffffff1916827bffffffffffffffffffffffffffffffffffffffffffffffffffffffff1916145b8061040b575061040a82610abe565b5b9050919050565b606060008054610421906120cd565b80601f016020809104026020016040519081016040528092919081815260200182805461044d906120cd565b801561049a5780601f1061046f5761010080835404028352916020019161049a565b820191906000526020600020905b81548152906001019060200180831161047d57829003601f168201915b5050505050905090565b60006104af82610b28565b6004600083815260200190815260200160002060009054906101000a900473ffffffffffffffffffffffffffffffffffffffff169050919050565b60006104f58261068c565b90508073ffffffffffffffffffffffffffffffffffffffff168373ffffffffffffffffffffffffffffffffffffffff161415610566576040517f08c379a000000000000000000000000000000000000000000000000000000000815260040161055d90611e73565b60405180910390fd5b8073ffffffffffffffffffffffffffffffffffffffff16610585610b73565b73ffffffffffffffffffffffffffffffffffffffff1614806105b457506105b3816105ae610b73565b610a2a565b5b6105f3576040517f08c379a00000000000000000000000000000000000000000000000000000000081526004016105ea90611dd3565b60405180910390fd5b6105fd8383610b7b565b505050565b6000600654905090565b61061d610617610b73565b82610c34565b61065c576040517f08c379a000000000000000000000000000000000000000000000000000000000815260040161065390611e93565b60405180910390fd5b610667838383610cc9565b505050565b610687838383604051806020016040528060008152506108db565b505050565b6000806002600084815260200190815260200160002060009054906101000a900473ffffffffffffffffffffffffffffffffffffffff169050600073ffffffffffffffffffffffffffffffffffffffff168173ffffffffffffffffffffffffffffffffffffffff161415610735576040517f08c379a000000000000000000000000000000000000000000000000000000000815260040161072c90611e53565b60405180910390fd5b80915050919050565b60008073ffffffffffffffffffffffffffffffffffffffff168273ffffffffffffffffffffffffffffffffffffffff1614156107af576040517f08c379a00000000000000000000000000000000000000000000000000000000081526004016107a690611db3565b60405180910390fd5b600360008373ffffffffffffffffffffffffffffffffffffffff1673ffffffffffffffffffffffffffffffffffffffff168152602001908152602001600020549050919050565b600061080483600654610f30565b6108106006548361110a565b6006600081548092919061082390612130565b9190505550600654905092915050565b606060018054610842906120cd565b80601f016020809104026020016040519081016040528092919081815260200182805461086e906120cd565b80156108bb5780601f10610890576101008083540402835291602001916108bb565b820191906000526020600020905b81548152906001019060200180831161089e57829003601f168201915b5050505050905090565b6108d76108d0610b73565b838361117e565b5050565b6108ec6108e6610b73565b83610c34565b61092b576040517f08c379a000000000000000000000000000000000000000000000000000000000815260040161092290611e93565b60405180910390fd5b610937848484846112eb565b50505050565b606061094882611347565b610987576040517f08c379a000000000000000000000000000000000000000000000000000000000815260040161097e90611e33565b60405180910390fd5b6007600083815260200190815260200160002080546109a5906120cd565b80601f01602080910402602001604051908101604052809291908181526020018280546109d1906120cd565b8015610a1e5780601f106109f357610100808354040283529160200191610a1e565b820191906000526020600020905b815481529060010190602001808311610a0157829003601f168201915b50505050509050919050565b6000600560008473ffffffffffffffffffffffffffffffffffffffff1673ffffffffffffffffffffffffffffffffffffffff16815260200190815260200160002060008373ffffffffffffffffffffffffffffffffffffffff1673ffffffffffffffffffffffffffffffffffffffff16815260200190815260200160002060009054906101000a900460ff16905092915050565b60007f01ffc9a7000000000000000000000000000000000000000000000000000000007bffffffffffffffffffffffffffffffffffffffffffffffffffffffff1916827bffffffffffffffffffffffffffffffffffffffffffffffffffffffff1916149050919050565b610b3181611347565b610b70576040517f08c379a0000000000000000000000000000000000000000000000000000000008152600401610b6790611e53565b60405180910390fd5b50565b600033905090565b816004600083815260200190815260200160002060006101000a81548173ffffffffffffffffffffffffffffffffffffffff021916908373ffffffffffffffffffffffffffffffffffffffff160217905550808273ffffffffffffffffffffffffffffffffffffffff16610bee8361068c565b73ffffffffffffffffffffffffffffffffffffffff167f8c5be1e5ebec7d5bd14f71427d1e84f3dd0314c0f7b2291e5b200ac8c7c3b92560405160405180910390a45050565b600080610c408361068c565b90508073ffffffffffffffffffffffffffffffffffffffff168473ffffffffffffffffffffffffffffffffffffffff161480610c825750610c818185610a2a565b5b80610cc057508373ffffffffffffffffffffffffffffffffffffffff16610ca8846104a4565b73ffffffffffffffffffffffffffffffffffffffff16145b91505092915050565b8273ffffffffffffffffffffffffffffffffffffffff16610ce98261068c565b73ffffffffffffffffffffffffffffffffffffffff1614610d3f576040517f08c379a0000000000000000000000000000000000000000000000000000000008152600401610d3690611d33565b60405180910390fd5b600073ffffffffffffffffffffffffffffffffffffffff168273ffffffffffffffffffffffffffffffffffffffff161415610daf576040517f08c379a0000000000000000000000000000000000000000000000000000000008152600401610da690611d73565b60405180910390fd5b610dba8383836113b3565b610dc5600082610b7b565b6001600360008573ffffffffffffffffffffffffffffffffffffffff1673ffffffffffffffffffffffffffffffffffffffff1681526020019081526020016000206000828254610e159190611fe3565b925050819055506001600360008473ffffffffffffffffffffffffffffffffffffffff1673ffffffffffffffffffffffffffffffffffffffff1681526020019081526020016000206000828254610e6c9190611f8d565b92505081905550816002600083815260200190815260200160002060006101000a81548173ffffffffffffffffffffffffffffffffffffffff021916908373ffffffffffffffffffffffffffffffffffffffff160217905550808273ffffffffffffffffffffffffffffffffffffffff168473ffffffffffffffffffffffffffffffffffffffff167fddf252ad1be2c89b69c2b068fc378daa952ba7f163c4a11628f55a4df523b3ef60405160405180910390a4610f2b8383836113b8565b505050565b600073ffffffffffffffffffffffffffffffffffffffff168273ffffffffffffffffffffffffffffffffffffffff161415610fa0576040517f08c379a0000000000000000000000000000000000000000000000000000000008152600401610f9790611df3565b60405180910390fd5b610fa981611347565b15610fe9576040517f08c379a0000000000000000000000000000000000000000000000000000000008152600401610fe090611d53565b60405180910390fd5b610ff5600083836113b3565b6001600360008473ffffffffffffffffffffffffffffffffffffffff1673ffffffffffffffffffffffffffffffffffffffff16815260200190815260200160002060008282546110459190611f8d565b92505081905550816002600083815260200190815260200160002060006101000a81548173ffffffffffffffffffffffffffffffffffffffff021916908373ffffffffffffffffffffffffffffffffffffffff160217905550808273ffffffffffffffffffffffffffffffffffffffff16600073ffffffffffffffffffffffffffffffffffffffff167fddf252ad1be2c89b69c2b068fc378daa952ba7f163c4a11628f55a4df523b3ef60405160405180910390a4611106600083836113b8565b5050565b61111382611347565b611152576040517f08c379a000000000000000000000000000000000000000000000000000000000815260040161114990611e13565b60405180910390fd5b80600760008481526020019081526020016000209080519060200190611179929190611577565b505050565b8173ffffffffffffffffffffffffffffffffffffffff168373ffffffffffffffffffffffffffffffffffffffff1614156111ed576040517f08c379a00000000000000000000000000000000000000000000000000000000081526004016111e490611d93565b60405180910390fd5b80600560008573ffffffffffffffffffffffffffffffffffffffff1673ffffffffffffffffffffffffffffffffffffffff16815260200190815260200160002060008473ffffffffffffffffffffffffffffffffffffffff1673ffffffffffffffffffffffffffffffffffffffff16815260200190815260200160002060006101000a81548160ff0219169083151502179055508173ffffffffffffffffffffffffffffffffffffffff168373ffffffffffffffffffffffffffffffffffffffff167f17307eab39ab6107e8899845ad3d59bd9653f200f220920489ca2b5937696c31836040516112de9190611cd6565b60405180910390a3505050565b6112f6848484610cc9565b611302848484846113bd565b611341576040517f08c379a000000000000000000000000000000000000000000000000000000000815260040161133890611d13565b60405180910390fd5b50505050565b60008073ffffffffffffffffffffffffffffffffffffffff166002600084815260200190815260200160002060009054906101000a900473ffffffffffffffffffffffffffffffffffffffff1673ffffffffffffffffffffffffffffffffffffffff1614159050919050565b505050565b505050565b60006113de8473ffffffffffffffffffffffffffffffffffffffff16611554565b15611547578373ffffffffffffffffffffffffffffffffffffffff1663150b7a02611407610b73565b8786866040518563ffffffff1660e01b81526004016114299493929190611c8a565b602060405180830381600087803b15801561144357600080fd5b505af192505050801561147457506040513d601f19601f8201168201806040525081019061147191906119af565b60015b6114f7573d80600081146114a4576040519150601f19603f3d011682016040523d82523d6000602084013e6114a9565b606091505b506000815114156114ef576040517f08c379a00000000000000000000000000000000000000000000000000000000081526004016114e690611d13565b60405180910390fd5b805181602001fd5b63150b7a0260e01b7bffffffffffffffffffffffffffffffffffffffffffffffffffffffff1916817bffffffffffffffffffffffffffffffffffffffffffffffffffffffff19161491505061154c565b600190505b949350505050565b6000808273ffffffffffffffffffffffffffffffffffffffff163b119050919050565b828054611583906120cd565b90600052602060002090601f0160209004810192826115a557600085556115ec565b82601f106115be57805160ff19168380011785556115ec565b828001600101855582156115ec579182015b828111156115eb5782518255916020019190600101906115d0565b5b5090506115f991906115fd565b5090565b5b808211156116165760008160009055506001016115fe565b5090565b600061162d61162884611ef3565b611ece565b9050828152602081018484840111156116495761164861220b565b5b61165484828561208b565b509392505050565b600061166f61166a84611f24565b611ece565b90508281526020810184848401111561168b5761168a61220b565b5b61169684828561208b565b509392505050565b6000813590506116ad81612596565b92915050565b6000813590506116c2816125ad565b92915050565b6000813590506116d7816125c4565b92915050565b6000815190506116ec816125c4565b92915050565b600082601f83011261170757611706612206565b5b813561171784826020860161161a565b91505092915050565b600082601f83011261173557611734612206565b5b813561174584826020860161165c565b91505092915050565b60008135905061175d816125db565b92915050565b60006020828403121561177957611778612215565b5b60006117878482850161169e565b91505092915050565b600080604083850312156117a7576117a6612215565b5b60006117b58582860161169e565b92505060206117c68582860161169e565b9150509250929050565b6000806000606084860312156117e9576117e8612215565b5b60006117f78682870161169e565b93505060206118088682870161169e565b92505060406118198682870161174e565b9150509250925092565b6000806000806080858703121561183d5761183c612215565b5b600061184b8782880161169e565b945050602061185c8782880161169e565b935050604061186d8782880161174e565b925050606085013567ffffffffffffffff81111561188e5761188d612210565b5b61189a878288016116f2565b91505092959194509250565b600080604083850312156118bd576118bc612215565b5b60006118cb8582860161169e565b92505060206118dc858286016116b3565b9150509250929050565b600080604083850312156118fd576118fc612215565b5b600061190b8582860161169e565b925050602083013567ffffffffffffffff81111561192c5761192b612210565b5b61193885828601611720565b9150509250929050565b6000806040838503121561195957611958612215565b5b60006119678582860161169e565b92505060206119788582860161174e565b9150509250929050565b60006020828403121561199857611997612215565b5b60006119a6848285016116c8565b91505092915050565b6000602082840312156119c5576119c4612215565b5b60006119d3848285016116dd565b91505092915050565b6000602082840312156119f2576119f1612215565b5b6000611a008482850161174e565b91505092915050565b611a1281612017565b82525050565b611a2181612029565b82525050565b6000611a3282611f55565b611a3c8185611f6b565b9350611a4c81856020860161209a565b611a558161221a565b840191505092915050565b6000611a6b82611f60565b611a758185611f7c565b9350611a8581856020860161209a565b611a8e8161221a565b840191505092915050565b6000611aa6603283611f7c565b9150611ab18261222b565b604082019050919050565b6000611ac9602583611f7c565b9150611ad48261227a565b604082019050919050565b6000611aec601c83611f7c565b9150611af7826122c9565b602082019050919050565b6000611b0f602483611f7c565b9150611b1a826122f2565b604082019050919050565b6000611b32601983611f7c565b9150611b3d82612341565b602082019050919050565b6000611b55602983611f7c565b9150611b608261236a565b604082019050919050565b6000611b78603e83611f7c565b9150611b83826123b9565b604082019050919050565b6000611b9b602083611f7c565b9150611ba682612408565b602082019050919050565b6000611bbe602c83611f7c565b9150611bc982612431565b604082019050919050565b6000611be1602f83611f7c565b9150611bec82612480565b604082019050919050565b6000611c04601883611f7c565b9150611c0f826124cf565b602082019050919050565b6000611c27602183611f7c565b9150611c32826124f8565b604082019050919050565b6000611c4a602e83611f7c565b9150611c5582612547565b604082019050919050565b611c6981612081565b82525050565b6000602082019050611c846000830184611a09565b92915050565b6000608082019050611c9f6000830187611a09565b611cac6020830186611a09565b611cb96040830185611c60565b8181036060830152611ccb8184611a27565b905095945050505050565b6000602082019050611ceb6000830184611a18565b92915050565b60006020820190508181036000830152611d0b8184611a60565b905092915050565b60006020820190508181036000830152611d2c81611a99565b9050919050565b60006020820190508181036000830152611d4c81611abc565b9050919050565b60006020820190508181036000830152611d6c81611adf565b9050919050565b60006020820190508181036000830152611d8c81611b02565b9050919050565b60006020820190508181036000830152611dac81611b25565b9050919050565b60006020820190508181036000830152611dcc81611b48565b9050919050565b60006020820190508181036000830152611dec81611b6b565b9050919050565b60006020820190508181036000830152611e0c81611b8e565b9050919050565b60006020820190508181036000830152611e2c81611bb1565b9050919050565b60006020820190508181036000830152611e4c81611bd4565b9050919050565b60006020820190508181036000830152611e6c81611bf7565b9050919050565b60006020820190508181036000830152611e8c81611c1a565b9050919050565b60006020820190508181036000830152611eac81611c3d565b9050919050565b6000602082019050611ec86000830184611c60565b92915050565b6000611ed8611ee9565b9050611ee482826120ff565b919050565b6000604051905090565b600067ffffffffffffffff821115611f0e57611f0d6121d7565b5b611f178261221a565b9050602081019050919050565b600067ffffffffffffffff821115611f3f57611f3e6121d7565b5b611f488261221a565b9050602081019050919050565b600081519050919050565b600081519050919050565b600082825260208201905092915050565b600082825260208201905092915050565b6000611f9882612081565b9150611fa383612081565b9250827fffffffffffffffffffffffffffffffffffffffffffffffffffffffffffffffff03821115611fd857611fd7612179565b5b828201905092915050565b6000611fee82612081565b9150611ff983612081565b92508282101561200c5761200b612179565b5b828203905092915050565b600061202282612061565b9050919050565b60008115159050919050565b60007fffffffff0000000000000000000000000000000000000000000000000000000082169050919050565b600073ffffffffffffffffffffffffffffffffffffffff82169050919050565b6000819050919050565b82818337600083830152505050565b60005b838110156120b857808201518184015260208101905061209d565b838111156120c7576000848401525b50505050565b600060028204905060018216806120e557607f821691505b602082108114156120f9576120f86121a8565b5b50919050565b6121088261221a565b810181811067ffffffffffffffff82111715612127576121266121d7565b5b80604052505050565b600061213b82612081565b91507fffffffffffffffffffffffffffffffffffffffffffffffffffffffffffffffff82141561216e5761216d612179565b5b600182019050919050565b7f4e487b7100000000000000000000000000000000000000000000000000000000600052601160045260246000fd5b7f4e487b7100000000000000000000000000000000000000000000000000000000600052602260045260246000fd5b7f4e487b7100000000000000000000000000000000000000000000000000000000600052604160045260246000fd5b600080fd5b600080fd5b600080fd5b600080fd5b6000601f19601f8301169050919050565b7f4552433732313a207472616e7366657220746f206e6f6e20455243373231526560008201527f63656976657220696d706c656d656e7465720000000000000000000000000000602082015250565b7f4552433732313a207472616e736665722066726f6d20696e636f72726563742060008201527f6f776e6572000000000000000000000000000000000000000000000000000000602082015250565b7f4552433732313a20746f6b656e20616c7265616479206d696e74656400000000600082015250565b7f4552433732313a207472616e7366657220746f20746865207a65726f2061646460008201527f7265737300000000000000000000000000000000000000000000000000000000602082015250565b7f4552433732313a20617070726f766520746f2063616c6c657200000000000000600082015250565b7f4552433732313a2061646472657373207a65726f206973206e6f74206120766160008201527f6c6964206f776e65720000000000000000000000000000000000000000000000602082015250565b7f4552433732313a20617070726f76652063616c6c6572206973206e6f7420746f60008201527f6b656e206f776e6572206e6f7220617070726f76656420666f7220616c6c0000602082015250565b7f4552433732313a206d696e7420746f20746865207a65726f2061646472657373600082015250565b7f4552433732314d657461646174613a2055524920736574206f66206e6f6e657860008201527f697374656e7420746f6b656e0000000000000000000000000000000000000000602082015250565b7f4552433732314d657461646174613a2055524920717565727920666f72206e6f60008201527f6e6578697374656e7420746f6b656e0000000000000000000000000000000000602082015250565b7f4552433732313a20696e76616c696420746f6b656e2049440000000000000000600082015250565b7f4552433732313a20617070726f76616c20746f2063757272656e74206f776e6560008201527f7200000000000000000000000000000000000000000000000000000000000000602082015250565b7f4552433732313a2063616c6c6572206973206e6f7420746f6b656e206f776e6560008201527f72206e6f7220617070726f766564000000000000000000000000000000000000602082015250565b61259f81612017565b81146125aa57600080fd5b50565b6125b681612029565b81146125c157600080fd5b50565b6125cd81612035565b81146125d857600080fd5b50565b6125e481612081565b81146125ef57600080fd5b5056fea2646970667358221220233c4d76df57e0a13606ef9e72882f704f2f2531323816f445bc36f6483fc2bb64736f6c63430008060033",
  "devdoc": {
    "kind": "dev",
    "methods": {
      "approve(address,uint256)": {
        "details": "See {IERC721-approve}."
      },
      "balanceOf(address)": {
        "details": "See {IERC721-balanceOf}."
      },
      "getApproved(uint256)": {
        "details": "See {IERC721-getApproved}."
      },
      "isApprovedForAll(address,address)": {
        "details": "See {IERC721-isApprovedForAll}."
      },
      "name()": {
        "details": "See {IERC721Metadata-name}."
      },
      "ownerOf(uint256)": {
        "details": "See {IERC721-ownerOf}."
      },
      "safeTransferFrom(address,address,uint256)": {
        "details": "See {IERC721-safeTransferFrom}."
      },
      "safeTransferFrom(address,address,uint256,bytes)": {
        "details": "See {IERC721-safeTransferFrom}."
      },
      "setApprovalForAll(address,bool)": {
        "details": "See {IERC721-setApprovalForAll}."
      },
      "supportsInterface(bytes4)": {
        "details": "See {IERC165-supportsInterface}."
      },
      "symbol()": {
        "details": "See {IERC721Metadata-symbol}."
      },
      "tokenURI(uint256)": {
        "details": "See {IERC721Metadata-tokenURI}."
      },
      "transferFrom(address,address,uint256)": {
        "details": "See {IERC721-transferFrom}."
      }
    },
    "version": 1
  },
  "userdoc": {
    "kind": "user",
    "methods": {},
    "version": 1
  },
  "storageLayout": {
    "storage": [
      {
        "astId": 25,
        "contract": "contracts/MetisERC721.sol:MetisERC721",
        "label": "_name",
        "offset": 0,
        "slot": "0",
        "type": "t_string_storage"
      },
      {
        "astId": 27,
        "contract": "contracts/MetisERC721.sol:MetisERC721",
        "label": "_symbol",
        "offset": 0,
        "slot": "1",
        "type": "t_string_storage"
      },
      {
        "astId": 31,
        "contract": "contracts/MetisERC721.sol:MetisERC721",
        "label": "_owners",
        "offset": 0,
        "slot": "2",
        "type": "t_mapping(t_uint256,t_address)"
      },
      {
        "astId": 35,
        "contract": "contracts/MetisERC721.sol:MetisERC721",
        "label": "_balances",
        "offset": 0,
        "slot": "3",
        "type": "t_mapping(t_address,t_uint256)"
      },
      {
        "astId": 39,
        "contract": "contracts/MetisERC721.sol:MetisERC721",
        "label": "_tokenApprovals",
        "offset": 0,
        "slot": "4",
        "type": "t_mapping(t_uint256,t_address)"
      },
      {
        "astId": 45,
        "contract": "contracts/MetisERC721.sol:MetisERC721",
        "label": "_operatorApprovals",
        "offset": 0,
        "slot": "5",
        "type": "t_mapping(t_address,t_mapping(t_address,t_bool))"
      },
      {
        "astId": 1613,
        "contract": "contracts/MetisERC721.sol:MetisERC721",
        "label": "_tokenIds",
        "offset": 0,
        "slot": "6",
        "type": "t_uint256"
      },
      {
        "astId": 1617,
        "contract": "contracts/MetisERC721.sol:MetisERC721",
        "label": "_tokenURIs",
        "offset": 0,
        "slot": "7",
        "type": "t_mapping(t_uint256,t_string_storage)"
      }
    ],
    "types": {
      "t_address": {
        "encoding": "inplace",
        "label": "address",
        "numberOfBytes": "20"
      },
      "t_bool": {
        "encoding": "inplace",
        "label": "bool",
        "numberOfBytes": "1"
      },
      "t_mapping(t_address,t_bool)": {
        "encoding": "mapping",
        "key": "t_address",
        "label": "mapping(address => bool)",
        "numberOfBytes": "32",
        "value": "t_bool"
      },
      "t_mapping(t_address,t_mapping(t_address,t_bool))": {
        "encoding": "mapping",
        "key": "t_address",
        "label": "mapping(address => mapping(address => bool))",
        "numberOfBytes": "32",
        "value": "t_mapping(t_address,t_bool)"
      },
      "t_mapping(t_address,t_uint256)": {
        "encoding": "mapping",
        "key": "t_address",
        "label": "mapping(address => uint256)",
        "numberOfBytes": "32",
        "value": "t_uint256"
      },
      "t_mapping(t_uint256,t_address)": {
        "encoding": "mapping",
        "key": "t_uint256",
        "label": "mapping(uint256 => address)",
        "numberOfBytes": "32",
        "value": "t_address"
      },
      "t_mapping(t_uint256,t_string_storage)": {
        "encoding": "mapping",
        "key": "t_uint256",
        "label": "mapping(uint256 => string)",
        "numberOfBytes": "32",
        "value": "t_string_storage"
      },
      "t_string_storage": {
        "encoding": "bytes",
        "label": "string",
        "numberOfBytes": "32"
      },
      "t_uint256": {
        "encoding": "inplace",
        "label": "uint256",
        "numberOfBytes": "32"
      }
    }
  }
}