{
  "address": "0xAB2b786024003eD35BbeE6525cbFCDf1d7b9A6e3",
  "abi": [
    {
      "inputs": [
        {
          "internalType": "string",
          "name": "name",
          "type": "string"
        },
        {
          "internalType": "string",
          "name": "symbol",
          "type": "string"
        }
      ],
      "stateMutability": "nonpayable",
      "type": "constructor"
    },
    {
      "anonymous": false,
      "inputs": [
        {
          "indexed": true,
          "internalType": "address",
          "name": "owner",
          "type": "address"
        },
        {
          "indexed": true,
          "internalType": "address",
          "name": "approved",
          "type": "address"
        },
        {
          "indexed": true,
          "internalType": "uint256",
          "name": "tokenId",
          "type": "uint256"
        }
      ],
      "name": "Approval",
      "type": "event"
    },
    {
      "anonymous": false,
      "inputs": [
        {
          "indexed": true,
          "internalType": "address",
          "name": "owner",
          "type": "address"
        },
        {
          "indexed": true,
          "internalType": "address",
          "name": "operator",
          "type": "address"
        },
        {
          "indexed": false,
          "internalType": "bool",
          "name": "approved",
          "type": "bool"
        }
      ],
      "name": "ApprovalForAll",
      "type": "event"
    },
    {
      "anonymous": false,
      "inputs": [
        {
          "indexed": true,
          "internalType": "address",
          "name": "from",
          "type": "address"
        },
        {
          "indexed": true,
          "internalType": "address",
          "name": "to",
          "type": "address"
        },
        {
          "indexed": true,
          "internalType": "uint256",
          "name": "tokenId",
          "type": "uint256"
        }
      ],
      "name": "Transfer",
      "type": "event"
    },
    {
      "inputs": [
        {
          "internalType": "address",
          "name": "to",
          "type": "address"
        },
        {
          "internalType": "uint256",
          "name": "tokenId",
          "type": "uint256"
        }
      ],
      "name": "approve",
      "outputs": [],
      "stateMutability": "nonpayable",
      "type": "function"
    },
    {
      "inputs": [
        {
          "internalType": "address",
          "name": "owner",
          "type": "address"
        }
      ],
      "name": "balanceOf",
      "outputs": [
        {
          "internalType": "uint256",
          "name": "",
          "type": "uint256"
        }
      ],
      "stateMutability": "view",
      "type": "function"
    },
    {
      "inputs": [
        {
          "internalType": "address",
          "name": "_claimer",
          "type": "address"
        },
        {
          "internalType": "string",
          "name": "_tokenURI",
          "type": "string"
        }
      ],
      "name": "claimToken",
      "outputs": [
        {
          "internalType": "uint256",
          "name": "",
          "type": "uint256"
        }
      ],
      "stateMutability": "nonpayable",
      "type": "function"
    },
    {
      "inputs": [
        {
          "internalType": "uint256",
          "name": "tokenId",
          "type": "uint256"
        }
      ],
      "name": "getApproved",
      "outputs": [
        {
          "internalType": "address",
          "name": "",
          "type": "address"
        }
      ],
      "stateMutability": "view",
      "type": "function"
    },
    {
      "inputs": [
        {
          "internalType": "address",
          "name": "owner",
          "type": "address"
        },
        {
          "internalType": "address",
          "name": "operator",
          "type": "address"
        }
      ],
      "name": "isApprovedForAll",
      "outputs": [
        {
          "internalType": "bool",
          "name": "",
          "type": "bool"
        }
      ],
      "stateMutability": "view",
      "type": "function"
    },
    {
      "inputs": [],
      "name": "name",
      "outputs": [
        {
          "internalType": "string",
          "name": "",
          "type": "string"
        }
      ],
      "stateMutability": "view",
      "type": "function"
    },
    {
      "inputs": [
        {
          "internalType": "uint256",
          "name": "tokenId",
          "type": "uint256"
        }
      ],
      "name": "ownerOf",
      "outputs": [
        {
          "internalType": "address",
          "name": "",
          "type": "address"
        }
      ],
      "stateMutability": "view",
      "type": "function"
    },
    {
      "inputs": [
        {
          "internalType": "address",
          "name": "from",
          "type": "address"
        },
        {
          "internalType": "address",
          "name": "to",
          "type": "address"
        },
        {
          "internalType": "uint256",
          "name": "tokenId",
          "type": "uint256"
        }
      ],
      "name": "safeTransferFrom",
      "outputs": [],
      "stateMutability": "nonpayable",
      "type": "function"
    },
    {
      "inputs": [
        {
          "internalType": "address",
          "name": "from",
          "type": "address"
        },
        {
          "internalType": "address",
          "name": "to",
          "type": "address"
        },
        {
          "internalType": "uint256",
          "name": "tokenId",
          "type": "uint256"
        },
        {
          "internalType": "bytes",
          "name": "_data",
          "type": "bytes"
        }
      ],
      "name": "safeTransferFrom",
      "outputs": [],
      "stateMutability": "nonpayable",
      "type": "function"
    },
    {
      "inputs": [
        {
          "internalType": "address",
          "name": "operator",
          "type": "address"
        },
        {
          "internalType": "bool",
          "name": "approved",
          "type": "bool"
        }
      ],
      "name": "setApprovalForAll",
      "outputs": [],
      "stateMutability": "nonpayable",
      "type": "function"
    },
    {
      "inputs": [
        {
          "internalType": "bytes4",
          "name": "interfaceId",
          "type": "bytes4"
        }
      ],
      "name": "supportsInterface",
      "outputs": [
        {
          "internalType": "bool",
          "name": "",
          "type": "bool"
        }
      ],
      "stateMutability": "view",
      "type": "function"
    },
    {
      "inputs": [],
      "name": "symbol",
      "outputs": [
        {
          "internalType": "string",
          "name": "",
          "type": "string"
        }
      ],
      "stateMutability": "view",
      "type": "function"
    },
    {
      "inputs": [
        {
          "internalType": "uint256",
          "name": "tokenId",
          "type": "uint256"
        }
      ],
      "name": "tokenURI",
      "outputs": [
        {
          "internalType": "string",
          "name": "",
          "type": "string"
        }
      ],
      "stateMutability": "view",
      "type": "function"
    },
    {
      "inputs": [],
      "name": "totalSupply",
      "outputs": [
        {
          "internalType": "uint256",
          "name": "",
          "type": "uint256"
        }
      ],
      "stateMutability": "view",
      "type": "function"
    },
    {
      "inputs": [
        {
          "internalType": "address",
          "name": "from",
          "type": "address"
        },
        {
          "internalType": "address",
          "name": "to",
          "type": "address"
        },
        {
          "internalType": "uint256",
          "name": "tokenId",
          "type": "uint256"
        }
      ],
      "name": "transferFrom",
      "outputs": [],
      "stateMutability": "nonpayable",
      "type": "function"
    }
  ],
  "transactionHash": "0xe315d9bc3125092d0f1989a0495ca88b81c489df8866baa629af232bf0999a22",
  "args": [
    "Metis",
    "MET"
  ],
  "solcInputHash": "c2b7d2e7a56776f3f214558ff0b565fb",
  "bytecode": "0x60806040523480156200001157600080fd5b5060405162002b3d38038062002b3d8339818101604052810190620000379190620001a3565b818181600090805190602001906200005192919062000075565b5080600190805190602001906200006a92919062000075565b5050505050620003ac565b8280546200008390620002bd565b90600052602060002090601f016020900481019282620000a75760008555620000f3565b82601f10620000c257805160ff1916838001178555620000f3565b82800160010185558215620000f3579182015b82811115620000f2578251825591602001919060010190620000d5565b5b50905062000102919062000106565b5090565b5b808211156200012157600081600090555060010162000107565b5090565b60006200013c620001368462000251565b62000228565b9050828152602081018484840111156200015b576200015a6200038c565b5b6200016884828562000287565b509392505050565b600082601f83011262000188576200018762000387565b5b81516200019a84826020860162000125565b91505092915050565b60008060408385031215620001bd57620001bc62000396565b5b600083015167ffffffffffffffff811115620001de57620001dd62000391565b5b620001ec8582860162000170565b925050602083015167ffffffffffffffff81111562000210576200020f62000391565b5b6200021e8582860162000170565b9150509250929050565b60006200023462000247565b9050620002428282620002f3565b919050565b6000604051905090565b600067ffffffffffffffff8211156200026f576200026e62000358565b5b6200027a826200039b565b9050602081019050919050565b60005b83811015620002a75780820151818401526020810190506200028a565b83811115620002b7576000848401525b50505050565b60006002820490506001821680620002d657607f821691505b60208210811415620002ed57620002ec62000329565b5b50919050565b620002fe826200039b565b810181811067ffffffffffffffff8211171562000320576200031f62000358565b5b80604052505050565b7f4e487b7100000000000000000000000000000000000000000000000000000000600052602260045260246000fd5b7f4e487b7100000000000000000000000000000000000000000000000000000000600052604160045260246000fd5b600080fd5b600080fd5b600080fd5b600080fd5b6000601f19601f8301169050919050565b61278180620003bc6000396000f3fe608060405234801561001057600080fd5b50600436106100f55760003560e01c80636352211e11610097578063a22cb46511610066578063a22cb46514610298578063b88d4fde146102b4578063c87b56dd146102d0578063e985e9c514610300576100f5565b80636352211e146101ea57806370a082311461021a578063931b33851461024a57806395d89b411461027a576100f5565b8063095ea7b3116100d3578063095ea7b31461017857806318160ddd1461019457806323b872dd146101b257806342842e0e146101ce576100f5565b806301ffc9a7146100fa57806306fdde031461012a578063081812fc14610148575b600080fd5b610114600480360381019061010f9190611991565b610330565b6040516101219190611d2b565b60405180910390f35b610132610412565b60405161013f9190611d46565b60405180910390f35b610162600480360381019061015d91906119eb565b6104a4565b60405161016f9190611cc4565b60405180910390f35b610192600480360381019061018d9190611951565b610529565b005b61019c610641565b6040516101a99190611f48565b60405180910390f35b6101cc60048036038101906101c791906117df565b61064b565b005b6101e860048036038101906101e391906117df565b6106ab565b005b61020460048036038101906101ff91906119eb565b6106cb565b6040516102119190611cc4565b60405180910390f35b610234600480360381019061022f9190611772565b61077d565b6040516102419190611f48565b60405180910390f35b610264600480360381019061025f91906118f5565b610835565b6040516102719190611f48565b60405180910390f35b610282610872565b60405161028f9190611d46565b60405180910390f35b6102b260048036038101906102ad91906118b5565b610904565b005b6102ce60048036038101906102c99190611832565b610a85565b005b6102ea60048036038101906102e591906119eb565b610ae7565b6040516102f79190611d46565b60405180910390f35b61031a6004803603810190610315919061179f565b610bd4565b6040516103279190611d2b565b60405180910390f35b60007f80ac58cd000000000000000000000000000000000000000000000000000000007bffffffffffffffffffffffffffffffffffffffffffffffffffffffff1916827bffffffffffffffffffffffffffffffffffffffffffffffffffffffff191614806103fb57507f5b5e139f000000000000000000000000000000000000000000000000000000007bffffffffffffffffffffffffffffffffffffffffffffffffffffffff1916827bffffffffffffffffffffffffffffffffffffffffffffffffffffffff1916145b8061040b575061040a82610c68565b5b9050919050565b60606000805461042190612162565b80601f016020809104026020016040519081016040528092919081815260200182805461044d90612162565b801561049a5780601f1061046f5761010080835404028352916020019161049a565b820191906000526020600020905b81548152906001019060200180831161047d57829003601f168201915b5050505050905090565b60006104af82610cd2565b6104ee576040517f08c379a00000000000000000000000000000000000000000000000000000000081526004016104e590611e88565b60405180910390fd5b6004600083815260200190815260200160002060009054906101000a900473ffffffffffffffffffffffffffffffffffffffff169050919050565b6000610534826106cb565b90508073ffffffffffffffffffffffffffffffffffffffff168373ffffffffffffffffffffffffffffffffffffffff1614156105a5576040517f08c379a000000000000000000000000000000000000000000000000000000000815260040161059c90611f08565b60405180910390fd5b8073ffffffffffffffffffffffffffffffffffffffff166105c4610d3e565b73ffffffffffffffffffffffffffffffffffffffff1614806105f357506105f2816105ed610d3e565b610bd4565b5b610632576040517f08c379a000000000000000000000000000000000000000000000000000000000815260040161062990611e08565b60405180910390fd5b61063c8383610d46565b505050565b6000600654905090565b61065c610656610d3e565b82610dff565b61069b576040517f08c379a000000000000000000000000000000000000000000000000000000000815260040161069290611f28565b60405180910390fd5b6106a6838383610edd565b505050565b6106c683838360405180602001604052806000815250610a85565b505050565b6000806002600084815260200190815260200160002060009054906101000a900473ffffffffffffffffffffffffffffffffffffffff169050600073ffffffffffffffffffffffffffffffffffffffff168173ffffffffffffffffffffffffffffffffffffffff161415610774576040517f08c379a000000000000000000000000000000000000000000000000000000000815260040161076b90611e48565b60405180910390fd5b80915050919050565b60008073ffffffffffffffffffffffffffffffffffffffff168273ffffffffffffffffffffffffffffffffffffffff1614156107ee576040517f08c379a00000000000000000000000000000000000000000000000000000000081526004016107e590611e28565b60405180910390fd5b600360008373ffffffffffffffffffffffffffffffffffffffff1673ffffffffffffffffffffffffffffffffffffffff168152602001908152602001600020549050919050565b600061084383600654611139565b61084f60065483611307565b60066000815480929190610862906121c5565b9190505550600654905092915050565b60606001805461088190612162565b80601f01602080910402602001604051908101604052809291908181526020018280546108ad90612162565b80156108fa5780601f106108cf576101008083540402835291602001916108fa565b820191906000526020600020905b8154815290600101906020018083116108dd57829003601f168201915b5050505050905090565b61090c610d3e565b73ffffffffffffffffffffffffffffffffffffffff168273ffffffffffffffffffffffffffffffffffffffff16141561097a576040517f08c379a000000000000000000000000000000000000000000000000000000000815260040161097190611dc8565b60405180910390fd5b8060056000610987610d3e565b73ffffffffffffffffffffffffffffffffffffffff1673ffffffffffffffffffffffffffffffffffffffff16815260200190815260200160002060008473ffffffffffffffffffffffffffffffffffffffff1673ffffffffffffffffffffffffffffffffffffffff16815260200190815260200160002060006101000a81548160ff0219169083151502179055508173ffffffffffffffffffffffffffffffffffffffff16610a34610d3e565b73ffffffffffffffffffffffffffffffffffffffff167f17307eab39ab6107e8899845ad3d59bd9653f200f220920489ca2b5937696c3183604051610a799190611d2b565b60405180910390a35050565b610a96610a90610d3e565b83610dff565b610ad5576040517f08c379a0000000000000000000000000000000000000000000000000000000008152600401610acc90611f28565b60405180910390fd5b610ae18484848461137b565b50505050565b6060610af282610cd2565b610b31576040517f08c379a0000000000000000000000000000000000000000000000000000000008152600401610b2890611ee8565b60405180910390fd5b600760008381526020019081526020016000208054610b4f90612162565b80601f0160208091040260200160405190810160405280929190818152602001828054610b7b90612162565b8015610bc85780601f10610b9d57610100808354040283529160200191610bc8565b820191906000526020600020905b815481529060010190602001808311610bab57829003601f168201915b50505050509050919050565b6000600560008473ffffffffffffffffffffffffffffffffffffffff1673ffffffffffffffffffffffffffffffffffffffff16815260200190815260200160002060008373ffffffffffffffffffffffffffffffffffffffff1673ffffffffffffffffffffffffffffffffffffffff16815260200190815260200160002060009054906101000a900460ff16905092915050565b60007f01ffc9a7000000000000000000000000000000000000000000000000000000007bffffffffffffffffffffffffffffffffffffffffffffffffffffffff1916827bffffffffffffffffffffffffffffffffffffffffffffffffffffffff1916149050919050565b60008073ffffffffffffffffffffffffffffffffffffffff166002600084815260200190815260200160002060009054906101000a900473ffffffffffffffffffffffffffffffffffffffff1673ffffffffffffffffffffffffffffffffffffffff1614159050919050565b600033905090565b816004600083815260200190815260200160002060006101000a81548173ffffffffffffffffffffffffffffffffffffffff021916908373ffffffffffffffffffffffffffffffffffffffff160217905550808273ffffffffffffffffffffffffffffffffffffffff16610db9836106cb565b73ffffffffffffffffffffffffffffffffffffffff167f8c5be1e5ebec7d5bd14f71427d1e84f3dd0314c0f7b2291e5b200ac8c7c3b92560405160405180910390a45050565b6000610e0a82610cd2565b610e49576040517f08c379a0000000000000000000000000000000000000000000000000000000008152600401610e4090611de8565b60405180910390fd5b6000610e54836106cb565b90508073ffffffffffffffffffffffffffffffffffffffff168473ffffffffffffffffffffffffffffffffffffffff161480610ec357508373ffffffffffffffffffffffffffffffffffffffff16610eab846104a4565b73ffffffffffffffffffffffffffffffffffffffff16145b80610ed45750610ed38185610bd4565b5b91505092915050565b8273ffffffffffffffffffffffffffffffffffffffff16610efd826106cb565b73ffffffffffffffffffffffffffffffffffffffff1614610f53576040517f08c379a0000000000000000000000000000000000000000000000000000000008152600401610f4a90611ec8565b60405180910390fd5b600073ffffffffffffffffffffffffffffffffffffffff168273ffffffffffffffffffffffffffffffffffffffff161415610fc3576040517f08c379a0000000000000000000000000000000000000000000000000000000008152600401610fba90611da8565b60405180910390fd5b610fce8383836113d7565b610fd9600082610d46565b6001600360008573ffffffffffffffffffffffffffffffffffffffff1673ffffffffffffffffffffffffffffffffffffffff16815260200190815260200160002060008282546110299190612078565b925050819055506001600360008473ffffffffffffffffffffffffffffffffffffffff1673ffffffffffffffffffffffffffffffffffffffff16815260200190815260200160002060008282546110809190612022565b92505081905550816002600083815260200190815260200160002060006101000a81548173ffffffffffffffffffffffffffffffffffffffff021916908373ffffffffffffffffffffffffffffffffffffffff160217905550808273ffffffffffffffffffffffffffffffffffffffff168473ffffffffffffffffffffffffffffffffffffffff167fddf252ad1be2c89b69c2b068fc378daa952ba7f163c4a11628f55a4df523b3ef60405160405180910390a4505050565b600073ffffffffffffffffffffffffffffffffffffffff168273ffffffffffffffffffffffffffffffffffffffff1614156111a9576040517f08c379a00000000000000000000000000000000000000000000000000000000081526004016111a090611e68565b60405180910390fd5b6111b281610cd2565b156111f2576040517f08c379a00000000000000000000000000000000000000000000000000000000081526004016111e990611d88565b60405180910390fd5b6111fe600083836113d7565b6001600360008473ffffffffffffffffffffffffffffffffffffffff1673ffffffffffffffffffffffffffffffffffffffff168152602001908152602001600020600082825461124e9190612022565b92505081905550816002600083815260200190815260200160002060006101000a81548173ffffffffffffffffffffffffffffffffffffffff021916908373ffffffffffffffffffffffffffffffffffffffff160217905550808273ffffffffffffffffffffffffffffffffffffffff16600073ffffffffffffffffffffffffffffffffffffffff167fddf252ad1be2c89b69c2b068fc378daa952ba7f163c4a11628f55a4df523b3ef60405160405180910390a45050565b61131082610cd2565b61134f576040517f08c379a000000000000000000000000000000000000000000000000000000000815260040161134690611ea8565b60405180910390fd5b80600760008481526020019081526020016000209080519060200190611376929190611586565b505050565b611386848484610edd565b611392848484846113dc565b6113d1576040517f08c379a00000000000000000000000000000000000000000000000000000000081526004016113c890611d68565b60405180910390fd5b50505050565b505050565b60006113fd8473ffffffffffffffffffffffffffffffffffffffff16611573565b15611566578373ffffffffffffffffffffffffffffffffffffffff1663150b7a02611426610d3e565b8786866040518563ffffffff1660e01b81526004016114489493929190611cdf565b602060405180830381600087803b15801561146257600080fd5b505af192505050801561149357506040513d601f19601f8201168201806040525081019061149091906119be565b60015b611516573d80600081146114c3576040519150601f19603f3d011682016040523d82523d6000602084013e6114c8565b606091505b5060008151141561150e576040517f08c379a000000000000000000000000000000000000000000000000000000000815260040161150590611d68565b60405180910390fd5b805181602001fd5b63150b7a0260e01b7bffffffffffffffffffffffffffffffffffffffffffffffffffffffff1916817bffffffffffffffffffffffffffffffffffffffffffffffffffffffff19161491505061156b565b600190505b949350505050565b600080823b905060008111915050919050565b82805461159290612162565b90600052602060002090601f0160209004810192826115b457600085556115fb565b82601f106115cd57805160ff19168380011785556115fb565b828001600101855582156115fb579182015b828111156115fa5782518255916020019190600101906115df565b5b509050611608919061160c565b5090565b5b8082111561162557600081600090555060010161160d565b5090565b600061163c61163784611f88565b611f63565b905082815260208101848484011115611658576116576122a0565b5b611663848285612120565b509392505050565b600061167e61167984611fb9565b611f63565b90508281526020810184848401111561169a576116996122a0565b5b6116a5848285612120565b509392505050565b6000813590506116bc816126ef565b92915050565b6000813590506116d181612706565b92915050565b6000813590506116e68161271d565b92915050565b6000815190506116fb8161271d565b92915050565b600082601f8301126117165761171561229b565b5b8135611726848260208601611629565b91505092915050565b600082601f8301126117445761174361229b565b5b813561175484826020860161166b565b91505092915050565b60008135905061176c81612734565b92915050565b600060208284031215611788576117876122aa565b5b6000611796848285016116ad565b91505092915050565b600080604083850312156117b6576117b56122aa565b5b60006117c4858286016116ad565b92505060206117d5858286016116ad565b9150509250929050565b6000806000606084860312156117f8576117f76122aa565b5b6000611806868287016116ad565b9350506020611817868287016116ad565b92505060406118288682870161175d565b9150509250925092565b6000806000806080858703121561184c5761184b6122aa565b5b600061185a878288016116ad565b945050602061186b878288016116ad565b935050604061187c8782880161175d565b925050606085013567ffffffffffffffff81111561189d5761189c6122a5565b5b6118a987828801611701565b91505092959194509250565b600080604083850312156118cc576118cb6122aa565b5b60006118da858286016116ad565b92505060206118eb858286016116c2565b9150509250929050565b6000806040838503121561190c5761190b6122aa565b5b600061191a858286016116ad565b925050602083013567ffffffffffffffff81111561193b5761193a6122a5565b5b6119478582860161172f565b9150509250929050565b60008060408385031215611968576119676122aa565b5b6000611976858286016116ad565b92505060206119878582860161175d565b9150509250929050565b6000602082840312156119a7576119a66122aa565b5b60006119b5848285016116d7565b91505092915050565b6000602082840312156119d4576119d36122aa565b5b60006119e2848285016116ec565b91505092915050565b600060208284031215611a0157611a006122aa565b5b6000611a0f8482850161175d565b91505092915050565b611a21816120ac565b82525050565b611a30816120be565b82525050565b6000611a4182611fea565b611a4b8185612000565b9350611a5b81856020860161212f565b611a64816122af565b840191505092915050565b6000611a7a82611ff5565b611a848185612011565b9350611a9481856020860161212f565b611a9d816122af565b840191505092915050565b6000611ab5603283612011565b9150611ac0826122c0565b604082019050919050565b6000611ad8601c83612011565b9150611ae38261230f565b602082019050919050565b6000611afb602483612011565b9150611b0682612338565b604082019050919050565b6000611b1e601983612011565b9150611b2982612387565b602082019050919050565b6000611b41602c83612011565b9150611b4c826123b0565b604082019050919050565b6000611b64603883612011565b9150611b6f826123ff565b604082019050919050565b6000611b87602a83612011565b9150611b928261244e565b604082019050919050565b6000611baa602983612011565b9150611bb58261249d565b604082019050919050565b6000611bcd602083612011565b9150611bd8826124ec565b602082019050919050565b6000611bf0602c83612011565b9150611bfb82612515565b604082019050919050565b6000611c13602c83612011565b9150611c1e82612564565b604082019050919050565b6000611c36602983612011565b9150611c41826125b3565b604082019050919050565b6000611c59602f83612011565b9150611c6482612602565b604082019050919050565b6000611c7c602183612011565b9150611c8782612651565b604082019050919050565b6000611c9f603183612011565b9150611caa826126a0565b604082019050919050565b611cbe81612116565b82525050565b6000602082019050611cd96000830184611a18565b92915050565b6000608082019050611cf46000830187611a18565b611d016020830186611a18565b611d0e6040830185611cb5565b8181036060830152611d208184611a36565b905095945050505050565b6000602082019050611d406000830184611a27565b92915050565b60006020820190508181036000830152611d608184611a6f565b905092915050565b60006020820190508181036000830152611d8181611aa8565b9050919050565b60006020820190508181036000830152611da181611acb565b9050919050565b60006020820190508181036000830152611dc181611aee565b9050919050565b60006020820190508181036000830152611de181611b11565b9050919050565b60006020820190508181036000830152611e0181611b34565b9050919050565b60006020820190508181036000830152611e2181611b57565b9050919050565b60006020820190508181036000830152611e4181611b7a565b9050919050565b60006020820190508181036000830152611e6181611b9d565b9050919050565b60006020820190508181036000830152611e8181611bc0565b9050919050565b60006020820190508181036000830152611ea181611be3565b9050919050565b60006020820190508181036000830152611ec181611c06565b9050919050565b60006020820190508181036000830152611ee181611c29565b9050919050565b60006020820190508181036000830152611f0181611c4c565b9050919050565b60006020820190508181036000830152611f2181611c6f565b9050919050565b60006020820190508181036000830152611f4181611c92565b9050919050565b6000602082019050611f5d6000830184611cb5565b92915050565b6000611f6d611f7e565b9050611f798282612194565b919050565b6000604051905090565b600067ffffffffffffffff821115611fa357611fa261226c565b5b611fac826122af565b9050602081019050919050565b600067ffffffffffffffff821115611fd457611fd361226c565b5b611fdd826122af565b9050602081019050919050565b600081519050919050565b600081519050919050565b600082825260208201905092915050565b600082825260208201905092915050565b600061202d82612116565b915061203883612116565b9250827fffffffffffffffffffffffffffffffffffffffffffffffffffffffffffffffff0382111561206d5761206c61220e565b5b828201905092915050565b600061208382612116565b915061208e83612116565b9250828210156120a1576120a061220e565b5b828203905092915050565b60006120b7826120f6565b9050919050565b60008115159050919050565b60007fffffffff0000000000000000000000000000000000000000000000000000000082169050919050565b600073ffffffffffffffffffffffffffffffffffffffff82169050919050565b6000819050919050565b82818337600083830152505050565b60005b8381101561214d578082015181840152602081019050612132565b8381111561215c576000848401525b50505050565b6000600282049050600182168061217a57607f821691505b6020821081141561218e5761218d61223d565b5b50919050565b61219d826122af565b810181811067ffffffffffffffff821117156121bc576121bb61226c565b5b80604052505050565b60006121d082612116565b91507fffffffffffffffffffffffffffffffffffffffffffffffffffffffffffffffff8214156122035761220261220e565b5b600182019050919050565b7f4e487b7100000000000000000000000000000000000000000000000000000000600052601160045260246000fd5b7f4e487b7100000000000000000000000000000000000000000000000000000000600052602260045260246000fd5b7f4e487b7100000000000000000000000000000000000000000000000000000000600052604160045260246000fd5b600080fd5b600080fd5b600080fd5b600080fd5b6000601f19601f8301169050919050565b7f4552433732313a207472616e7366657220746f206e6f6e20455243373231526560008201527f63656976657220696d706c656d656e7465720000000000000000000000000000602082015250565b7f4552433732313a20746f6b656e20616c7265616479206d696e74656400000000600082015250565b7f4552433732313a207472616e7366657220746f20746865207a65726f2061646460008201527f7265737300000000000000000000000000000000000000000000000000000000602082015250565b7f4552433732313a20617070726f766520746f2063616c6c657200000000000000600082015250565b7f4552433732313a206f70657261746f7220717565727920666f72206e6f6e657860008201527f697374656e7420746f6b656e0000000000000000000000000000000000000000602082015250565b7f4552433732313a20617070726f76652063616c6c6572206973206e6f74206f7760008201527f6e6572206e6f7220617070726f76656420666f7220616c6c0000000000000000602082015250565b7f4552433732313a2062616c616e636520717565727920666f7220746865207a6560008201527f726f206164647265737300000000000000000000000000000000000000000000602082015250565b7f4552433732313a206f776e657220717565727920666f72206e6f6e657869737460008201527f656e7420746f6b656e0000000000000000000000000000000000000000000000602082015250565b7f4552433732313a206d696e7420746f20746865207a65726f2061646472657373600082015250565b7f4552433732313a20617070726f76656420717565727920666f72206e6f6e657860008201527f697374656e7420746f6b656e0000000000000000000000000000000000000000602082015250565b7f4552433732314d657461646174613a2055524920736574206f66206e6f6e657860008201527f697374656e7420746f6b656e0000000000000000000000000000000000000000602082015250565b7f4552433732313a207472616e73666572206f6620746f6b656e2074686174206960008201527f73206e6f74206f776e0000000000000000000000000000000000000000000000602082015250565b7f4552433732314d657461646174613a2055524920717565727920666f72206e6f60008201527f6e6578697374656e7420746f6b656e0000000000000000000000000000000000602082015250565b7f4552433732313a20617070726f76616c20746f2063757272656e74206f776e6560008201527f7200000000000000000000000000000000000000000000000000000000000000602082015250565b7f4552433732313a207472616e736665722063616c6c6572206973206e6f74206f60008201527f776e6572206e6f7220617070726f766564000000000000000000000000000000602082015250565b6126f8816120ac565b811461270357600080fd5b50565b61270f816120be565b811461271a57600080fd5b50565b612726816120ca565b811461273157600080fd5b50565b61273d81612116565b811461274857600080fd5b5056fea26469706673582212208233fb448a6668a11633193a68be7c1ead2c91d7c8355c948607c5b3e280a38b64736f6c63430008060033",
  "devdoc": {
    "kind": "dev",
    "methods": {
      "approve(address,uint256)": {
        "details": "See {IERC721-approve}."
      },
      "balanceOf(address)": {
        "details": "See {IERC721-balanceOf}."
      },
      "getApproved(uint256)": {
        "details": "See {IERC721-getApproved}."
      },
      "isApprovedForAll(address,address)": {
        "details": "See {IERC721-isApprovedForAll}."
      },
      "name()": {
        "details": "See {IERC721Metadata-name}."
      },
      "ownerOf(uint256)": {
        "details": "See {IERC721-ownerOf}."
      },
      "safeTransferFrom(address,address,uint256)": {
        "details": "See {IERC721-safeTransferFrom}."
      },
      "safeTransferFrom(address,address,uint256,bytes)": {
        "details": "See {IERC721-safeTransferFrom}."
      },
      "setApprovalForAll(address,bool)": {
        "details": "See {IERC721-setApprovalForAll}."
      },
      "supportsInterface(bytes4)": {
        "details": "See {IERC165-supportsInterface}."
      },
      "symbol()": {
        "details": "See {IERC721Metadata-symbol}."
      },
      "tokenURI(uint256)": {
        "details": "See {IERC721Metadata-tokenURI}."
      },
      "transferFrom(address,address,uint256)": {
        "details": "See {IERC721-transferFrom}."
      }
    },
    "version": 1
  },
  "userdoc": {
    "kind": "user",
    "methods": {},
    "version": 1
  },
  "storageLayout": {
    "storage": [
      {
        "astId": 25,
        "contract": "contracts/MetisERC721.sol:MetisERC721",
        "label": "_name",
        "offset": 0,
        "slot": "0",
        "type": "t_string_storage"
      },
      {
        "astId": 27,
        "contract": "contracts/MetisERC721.sol:MetisERC721",
        "label": "_symbol",
        "offset": 0,
        "slot": "1",
        "type": "t_string_storage"
      },
      {
        "astId": 31,
        "contract": "contracts/MetisERC721.sol:MetisERC721",
        "label": "_owners",
        "offset": 0,
        "slot": "2",
        "type": "t_mapping(t_uint256,t_address)"
      },
      {
        "astId": 35,
        "contract": "contracts/MetisERC721.sol:MetisERC721",
        "label": "_balances",
        "offset": 0,
        "slot": "3",
        "type": "t_mapping(t_address,t_uint256)"
      },
      {
        "astId": 39,
        "contract": "contracts/MetisERC721.sol:MetisERC721",
        "label": "_tokenApprovals",
        "offset": 0,
        "slot": "4",
        "type": "t_mapping(t_uint256,t_address)"
      },
      {
        "astId": 45,
        "contract": "contracts/MetisERC721.sol:MetisERC721",
        "label": "_operatorApprovals",
        "offset": 0,
        "slot": "5",
        "type": "t_mapping(t_address,t_mapping(t_address,t_bool))"
      },
      {
        "astId": 1541,
        "contract": "contracts/MetisERC721.sol:MetisERC721",
        "label": "_tokenIds",
        "offset": 0,
        "slot": "6",
        "type": "t_uint256"
      },
      {
        "astId": 1545,
        "contract": "contracts/MetisERC721.sol:MetisERC721",
        "label": "_tokenURIs",
        "offset": 0,
        "slot": "7",
        "type": "t_mapping(t_uint256,t_string_storage)"
      }
    ],
    "types": {
      "t_address": {
        "encoding": "inplace",
        "label": "address",
        "numberOfBytes": "20"
      },
      "t_bool": {
        "encoding": "inplace",
        "label": "bool",
        "numberOfBytes": "1"
      },
      "t_mapping(t_address,t_bool)": {
        "encoding": "mapping",
        "key": "t_address",
        "label": "mapping(address => bool)",
        "numberOfBytes": "32",
        "value": "t_bool"
      },
      "t_mapping(t_address,t_mapping(t_address,t_bool))": {
        "encoding": "mapping",
        "key": "t_address",
        "label": "mapping(address => mapping(address => bool))",
        "numberOfBytes": "32",
        "value": "t_mapping(t_address,t_bool)"
      },
      "t_mapping(t_address,t_uint256)": {
        "encoding": "mapping",
        "key": "t_address",
        "label": "mapping(address => uint256)",
        "numberOfBytes": "32",
        "value": "t_uint256"
      },
      "t_mapping(t_uint256,t_address)": {
        "encoding": "mapping",
        "key": "t_uint256",
        "label": "mapping(uint256 => address)",
        "numberOfBytes": "32",
        "value": "t_address"
      },
      "t_mapping(t_uint256,t_string_storage)": {
        "encoding": "mapping",
        "key": "t_uint256",
        "label": "mapping(uint256 => string)",
        "numberOfBytes": "32",
        "value": "t_string_storage"
      },
      "t_string_storage": {
        "encoding": "bytes",
        "label": "string",
        "numberOfBytes": "32"
      },
      "t_uint256": {
        "encoding": "inplace",
        "label": "uint256",
        "numberOfBytes": "32"
      }
    }
  }
}