{
  "address": "0x9383507A1C6B4cbC9B923bd0c858fCEE95dACc7a",
  "abi": [
    {
      "inputs": [
        {
          "internalType": "string",
          "name": "name",
          "type": "string"
        },
        {
          "internalType": "string",
          "name": "symbol",
          "type": "string"
        }
      ],
      "stateMutability": "nonpayable",
      "type": "constructor"
    },
    {
      "anonymous": false,
      "inputs": [
        {
          "indexed": true,
          "internalType": "address",
          "name": "owner",
          "type": "address"
        },
        {
          "indexed": true,
          "internalType": "address",
          "name": "approved",
          "type": "address"
        },
        {
          "indexed": true,
          "internalType": "uint256",
          "name": "tokenId",
          "type": "uint256"
        }
      ],
      "name": "Approval",
      "type": "event"
    },
    {
      "anonymous": false,
      "inputs": [
        {
          "indexed": true,
          "internalType": "address",
          "name": "owner",
          "type": "address"
        },
        {
          "indexed": true,
          "internalType": "address",
          "name": "operator",
          "type": "address"
        },
        {
          "indexed": false,
          "internalType": "bool",
          "name": "approved",
          "type": "bool"
        }
      ],
      "name": "ApprovalForAll",
      "type": "event"
    },
    {
      "anonymous": false,
      "inputs": [
        {
          "indexed": true,
          "internalType": "address",
          "name": "from",
          "type": "address"
        },
        {
          "indexed": true,
          "internalType": "address",
          "name": "to",
          "type": "address"
        },
        {
          "indexed": true,
          "internalType": "uint256",
          "name": "tokenId",
          "type": "uint256"
        }
      ],
      "name": "Transfer",
      "type": "event"
    },
    {
      "inputs": [
        {
          "internalType": "address",
          "name": "to",
          "type": "address"
        },
        {
          "internalType": "uint256",
          "name": "tokenId",
          "type": "uint256"
        }
      ],
      "name": "approve",
      "outputs": [],
      "stateMutability": "nonpayable",
      "type": "function"
    },
    {
      "inputs": [
        {
          "internalType": "address",
          "name": "owner",
          "type": "address"
        }
      ],
      "name": "balanceOf",
      "outputs": [
        {
          "internalType": "uint256",
          "name": "",
          "type": "uint256"
        }
      ],
      "stateMutability": "view",
      "type": "function"
    },
    {
      "inputs": [],
      "name": "baseURI",
      "outputs": [
        {
          "internalType": "string",
          "name": "",
          "type": "string"
        }
      ],
      "stateMutability": "view",
      "type": "function"
    },
    {
      "inputs": [
        {
          "internalType": "address",
          "name": "_claimer",
          "type": "address"
        },
        {
          "internalType": "string",
          "name": "_tokenURI",
          "type": "string"
        }
      ],
      "name": "claimToken",
      "outputs": [
        {
          "internalType": "uint256",
          "name": "",
          "type": "uint256"
        }
      ],
      "stateMutability": "nonpayable",
      "type": "function"
    },
    {
      "inputs": [
        {
          "internalType": "uint256",
          "name": "tokenId",
          "type": "uint256"
        }
      ],
      "name": "getApproved",
      "outputs": [
        {
          "internalType": "address",
          "name": "",
          "type": "address"
        }
      ],
      "stateMutability": "view",
      "type": "function"
    },
    {
      "inputs": [
        {
          "internalType": "address",
          "name": "owner",
          "type": "address"
        },
        {
          "internalType": "address",
          "name": "operator",
          "type": "address"
        }
      ],
      "name": "isApprovedForAll",
      "outputs": [
        {
          "internalType": "bool",
          "name": "",
          "type": "bool"
        }
      ],
      "stateMutability": "view",
      "type": "function"
    },
    {
      "inputs": [],
      "name": "name",
      "outputs": [
        {
          "internalType": "string",
          "name": "",
          "type": "string"
        }
      ],
      "stateMutability": "view",
      "type": "function"
    },
    {
      "inputs": [
        {
          "internalType": "uint256",
          "name": "tokenId",
          "type": "uint256"
        }
      ],
      "name": "ownerOf",
      "outputs": [
        {
          "internalType": "address",
          "name": "",
          "type": "address"
        }
      ],
      "stateMutability": "view",
      "type": "function"
    },
    {
      "inputs": [
        {
          "internalType": "address",
          "name": "from",
          "type": "address"
        },
        {
          "internalType": "address",
          "name": "to",
          "type": "address"
        },
        {
          "internalType": "uint256",
          "name": "tokenId",
          "type": "uint256"
        }
      ],
      "name": "safeTransferFrom",
      "outputs": [],
      "stateMutability": "nonpayable",
      "type": "function"
    },
    {
      "inputs": [
        {
          "internalType": "address",
          "name": "from",
          "type": "address"
        },
        {
          "internalType": "address",
          "name": "to",
          "type": "address"
        },
        {
          "internalType": "uint256",
          "name": "tokenId",
          "type": "uint256"
        },
        {
          "internalType": "bytes",
          "name": "_data",
          "type": "bytes"
        }
      ],
      "name": "safeTransferFrom",
      "outputs": [],
      "stateMutability": "nonpayable",
      "type": "function"
    },
    {
      "inputs": [
        {
          "internalType": "address",
          "name": "operator",
          "type": "address"
        },
        {
          "internalType": "bool",
          "name": "approved",
          "type": "bool"
        }
      ],
      "name": "setApprovalForAll",
      "outputs": [],
      "stateMutability": "nonpayable",
      "type": "function"
    },
    {
      "inputs": [
        {
          "internalType": "bytes4",
          "name": "interfaceId",
          "type": "bytes4"
        }
      ],
      "name": "supportsInterface",
      "outputs": [
        {
          "internalType": "bool",
          "name": "",
          "type": "bool"
        }
      ],
      "stateMutability": "view",
      "type": "function"
    },
    {
      "inputs": [],
      "name": "symbol",
      "outputs": [
        {
          "internalType": "string",
          "name": "",
          "type": "string"
        }
      ],
      "stateMutability": "view",
      "type": "function"
    },
    {
      "inputs": [
        {
          "internalType": "uint256",
          "name": "index",
          "type": "uint256"
        }
      ],
      "name": "tokenByIndex",
      "outputs": [
        {
          "internalType": "uint256",
          "name": "",
          "type": "uint256"
        }
      ],
      "stateMutability": "view",
      "type": "function"
    },
    {
      "inputs": [
        {
          "internalType": "address",
          "name": "owner",
          "type": "address"
        },
        {
          "internalType": "uint256",
          "name": "index",
          "type": "uint256"
        }
      ],
      "name": "tokenOfOwnerByIndex",
      "outputs": [
        {
          "internalType": "uint256",
          "name": "",
          "type": "uint256"
        }
      ],
      "stateMutability": "view",
      "type": "function"
    },
    {
      "inputs": [
        {
          "internalType": "uint256",
          "name": "tokenId",
          "type": "uint256"
        }
      ],
      "name": "tokenURI",
      "outputs": [
        {
          "internalType": "string",
          "name": "",
          "type": "string"
        }
      ],
      "stateMutability": "view",
      "type": "function"
    },
    {
      "inputs": [],
      "name": "totalSupply",
      "outputs": [
        {
          "internalType": "uint256",
          "name": "",
          "type": "uint256"
        }
      ],
      "stateMutability": "view",
      "type": "function"
    },
    {
      "inputs": [
        {
          "internalType": "address",
          "name": "from",
          "type": "address"
        },
        {
          "internalType": "address",
          "name": "to",
          "type": "address"
        },
        {
          "internalType": "uint256",
          "name": "tokenId",
          "type": "uint256"
        }
      ],
      "name": "transferFrom",
      "outputs": [],
      "stateMutability": "nonpayable",
      "type": "function"
    }
  ],
  "transactionHash": "0x75bd30778c06a2a4e0c4142f2cc8baf108e46596a339047c2434f9980f885f38",
  "args": [
    "Metis",
    "MET"
  ],
  "solcInputHash": "88ccb1da61914edc682e87d8fe7baa8b",
  "bytecode": "0x60806040525a6200000f620003dd565b80156200002657600080620000236200043c565b50505b50604051620039a2380380620039a2833981810160405260408110156200005757600080620000546200043c565b50505b81019080805160405193929190846401000000008211156200008357600080620000806200043c565b50505b83820191506020820185811115620000a557600080620000a26200043c565b50505b8251866001820283011164010000000082111715620000ce57600080620000cb6200043c565b50505b8083526020830192505050908051906020019080838360005b8381101562000104578082015181840152602081019050620000e7565b50505050905090810190601f168015620001325780820380516001836020036101000a031916815260200191505b506040526020018051604051939291908464010000000082111562000161576000806200015e6200043c565b50505b838201915060208201858111156200018357600080620001806200043c565b50505b8251866001820283011164010000000082111715620001ac57600080620001a96200043c565b50505b8083526020830192505050908051906020019080838360005b83811015620001e2578082015181840152602081019050620001c5565b50505050905090810190601f168015620002105780820380516001836020036101000a031916815260200191505b506040525050508181620002316301ffc9a760e01b620002b560201b60201c565b816006908051906020019062000249929190620004ac565b50806007908051906020019062000262929190620004ac565b506200027b6380ac58cd60e01b620002b560201b60201c565b62000293635b5e139f60e01b620002b560201b60201c565b620002ab63780e9d6360e01b620002b560201b60201c565b505050506200066e565b63ffffffff60e01b817bffffffffffffffffffffffffffffffffffffffffffffffffffffffff191614156200035d576040517f08c379a000000000000000000000000000000000000000000000000000000000815260040180806020018281038252601c8152602001807f4552433136353a20696e76616c696420696e7465726661636520696400000000815250602001915050604051809103906200035a6200043c565b50505b6001600080837bffffffffffffffffffffffffffffffffffffffffffffffffffffffff19167bffffffffffffffffffffffffffffffffffffffffffffffffffffffff1916815260200190815260200160002060006101000a81620003c062000578565b8160ff02191690831515021790620003d7620005dd565b50505050565b63a8c4c5ec598160e01b8152602081600483336000905af158600e01573d6000803e3d6000fd5b3d6001141558600a015760016000f35b8051935060005b604081101562000437576000818301526020810190506200041b565b505050565b632a2a7adb598160e01b8152600481016020815285602082015260005b868110156200047957808601518160408401015260208101905062000459565b506020828760640184336000905af158600e01573d6000803e3d6000fd5b3d6001141558600a015760016000f35b505050565b8280620004b862000578565b600181600116156101000203166002900490600052602060002090601f016020900481019282620004f857600085620004f0620005dd565b505062000565565b82601f106200051e57805160ff1916838001178562000516620005dd565b505062000565565b828001600101856200052f620005dd565b5050821562000565579182015b82811115620005645782518262000552620005dd565b5050916020019190600101906200053c565b5b50905062000574919062000644565b5090565b6303daa959598160e01b8152836004820152602081602483336000905af158600e01573d6000803e3d6000fd5b3d6001141558600a015760016000f35b8051935060005b6040811015620005d857600081830152602081019050620005bc565b505050565b6322bd64c0598160e01b8152836004820152846024820152600081604483336000905af158600e01573d6000803e3d6000fd5b3d6001141558600a015760016000f35b60005b60408110156200063f5760008183015260208101905062000623565b505050565b5b808211156200066a576000816000906200065e620005dd565b50505060010162000645565b5090565b613324806200067e6000396000f3fe60806040525a61000d612c15565b80156100215760008061001e612c72565b50505b50600436106101275760003560e01c80636352211e116100b357806395d89b411161008257806395d89b41146106f6578063a22cb46514610779578063b88d4fde146107d2578063c87b56dd146108fb578063e985e9c5146109ab57610127565b80636352211e1461049e5780636c0360eb146104ff57806370a0823114610582578063931b3385146105e357610127565b806318160ddd116100fa57806318160ddd146102dc57806323b872dd146102fa5780632f745c591461037157806342842e0e146103dc5780634f6ccce71461045357610127565b806301ffc9a71461013557806306fdde03146101a1578063081812fc14610224578063095ea7b314610285575b600080610132612c72565b50505b6101896004803603602081101561015457600080610151612c72565b50505b8101908080357bffffffffffffffffffffffffffffffffffffffffffffffffffffffff19169060200190929190505050610a2e565b60405180821515815260200191505060405180910390f35b6101a9610a9c565b6040518080602001828103825283818151815260200191508051906020019080838360005b838110156101e95780820151818401526020810190506101ce565b50505050905090810190601f1680156102165780820380516001836020036101000a031916815260200191505b509250505060405180910390f35b6102596004803603602081101561024357600080610240612c72565b50505b8101908080359060200190929190505050610b5a565b604051808273ffffffffffffffffffffffffffffffffffffffff16815260200191505060405180910390f35b6102da600480360360408110156102a4576000806102a1612c72565b50505b81019080803573ffffffffffffffffffffffffffffffffffffffff16906020019092919080359060200190929190505050610c05565b005b6102e4610d5b565b6040518082815260200191505060405180910390f35b61036f6004803603606081101561031957600080610316612c72565b50505b81019080803573ffffffffffffffffffffffffffffffffffffffff169060200190929190803573ffffffffffffffffffffffffffffffffffffffff16906020019092919080359060200190929190505050610d6c565b005b6103c6600480360360408110156103905760008061038d612c72565b50505b81019080803573ffffffffffffffffffffffffffffffffffffffff16906020019092919080359060200190929190505050610deb565b6040518082815260200191505060405180910390f35b610451600480360360608110156103fb576000806103f8612c72565b50505b81019080803573ffffffffffffffffffffffffffffffffffffffff169060200190929190803573ffffffffffffffffffffffffffffffffffffffff16906020019092919080359060200190929190505050610e46565b005b610488600480360360208110156104725760008061046f612c72565b50505b8101908080359060200190929190505050610e66565b6040518082815260200191505060405180910390f35b6104d3600480360360208110156104bd576000806104ba612c72565b50505b8101908080359060200190929190505050610e89565b604051808273ffffffffffffffffffffffffffffffffffffffff16815260200191505060405180910390f35b610507610ec0565b6040518080602001828103825283818151815260200191508051906020019080838360005b8381101561054757808201518184015260208101905061052c565b50505050905090810190601f1680156105745780820380516001836020036101000a031916815260200191505b509250505060405180910390f35b6105cd600480360360208110156105a15760008061059e612c72565b50505b81019080803573ffffffffffffffffffffffffffffffffffffffff169060200190929190505050610f7e565b6040518082815260200191505060405180910390f35b6106e060048036036040811015610602576000806105ff612c72565b50505b81019080803573ffffffffffffffffffffffffffffffffffffffff1690602001909291908035906020019064010000000081111561064857600080610645612c72565b50505b82018360208201111561066357600080610660612c72565b50505b8035906020019184600183028401116401000000008311171561068e5760008061068b612c72565b50505b91908080601f016020809104026020016040519081016040528093929190818152602001838380828437600081840152601f19601f82011690508083019250505050505050919291929050505061105c565b6040518082815260200191505060405180910390f35b6106fe6110b8565b6040518080602001828103825283818151815260200191508051906020019080838360005b8381101561073e578082015181840152602081019050610723565b50505050905090810190601f16801561076b5780820380516001836020036101000a031916815260200191505b509250505060405180910390f35b6107d06004803603604081101561079857600080610795612c72565b50505b81019080803573ffffffffffffffffffffffffffffffffffffffff169060200190929190803515159060200190929190505050611176565b005b6108f9600480360360808110156107f1576000806107ee612c72565b50505b81019080803573ffffffffffffffffffffffffffffffffffffffff169060200190929190803573ffffffffffffffffffffffffffffffffffffffff16906020019092919080359060200190929190803590602001906401000000008111156108615760008061085e612c72565b50505b82018360208201111561087c57600080610879612c72565b50505b803590602001918460018302840111640100000000831117156108a7576000806108a4612c72565b50505b91908080601f016020809104026020016040519081016040528093929190818152602001838380828437600081840152601f19601f820116905080830192505050505050509192919290505050611345565b005b6109306004803603602081101561091a57600080610917612c72565b50505b81019080803590602001909291905050506113c6565b6040518080602001828103825283818151815260200191508051906020019080838360005b83811015610970578082015181840152602081019050610955565b50505050905090810190601f16801561099d5780820380516001836020036101000a031916815260200191505b509250505060405180910390f35b610a16600480360360408110156109ca576000806109c7612c72565b50505b81019080803573ffffffffffffffffffffffffffffffffffffffff169060200190929190803573ffffffffffffffffffffffffffffffffffffffff1690602001909291905050506116bc565b60405180821515815260200191505060405180910390f35b6000806000837bffffffffffffffffffffffffffffffffffffffffffffffffffffffff19167bffffffffffffffffffffffffffffffffffffffffffffffffffffffff19168152602001908152602001600020600090610a8b612ce0565b906101000a900460ff169050919050565b6060600680610aa9612ce0565b600181600116156101000203166002900480601f01602080910402602001604051908101604052809291908181526020018280610ae4612ce0565b60018160011615610100020316600290048015610b505780601f10610b1e576101008083610b10612ce0565b040283529160200191610b50565b820191906000526020600020905b81610b35612ce0565b81529060010190602001808311610b2c57829003601f168201915b5050505050905090565b6000610b6582611757565b610bc3576040517f08c379a000000000000000000000000000000000000000000000000000000000815260040180806020018281038252602c815260200180613222602c913960400191505060405180910390610bc0612c72565b50505b60046000838152602001908152602001600020600090610be1612ce0565b906101000a900473ffffffffffffffffffffffffffffffffffffffff169050919050565b6000610c1082610e89565b90508073ffffffffffffffffffffffffffffffffffffffff168373ffffffffffffffffffffffffffffffffffffffff161415610ca0576040517f08c379a00000000000000000000000000000000000000000000000000000000081526004018080602001828103825260218152602001806132d26021913960400191505060405180910390610c9d612c72565b50505b8073ffffffffffffffffffffffffffffffffffffffff16610cbf611774565b73ffffffffffffffffffffffffffffffffffffffff161480610cee5750610ced81610ce8611774565b6116bc565b5b610d4c576040517f08c379a00000000000000000000000000000000000000000000000000000000081526004018080602001828103825260388152602001806131756038913960400191505060405180910390610d49612c72565b50505b610d568383611784565b505050565b6000610d67600261184d565b905090565b610d7d610d77611774565b82611862565b610ddb576040517f08c379a00000000000000000000000000000000000000000000000000000000081526004018080602001828103825260318152602001806132f36031913960400191505060405180910390610dd8612c72565b50505b610de683838361195f565b505050565b6000610e3e82600160008673ffffffffffffffffffffffffffffffffffffffff1673ffffffffffffffffffffffffffffffffffffffff168152602001908152602001600020611bb490919063ffffffff16565b905092915050565b610e6183838360405180602001604052806000815250611345565b505050565b600080610e7d836002611bce90919063ffffffff16565b50905080915050919050565b6000610eb9826040518060600160405280602981526020016131d7602991396002611bfa9092919063ffffffff16565b9050919050565b6060600980610ecd612ce0565b600181600116156101000203166002900480601f01602080910402602001604051908101604052809291908181526020018280610f08612ce0565b60018160011615610100020316600290048015610f745780601f10610f42576101008083610f34612ce0565b040283529160200191610f74565b820191906000526020600020905b81610f59612ce0565b81529060010190602001808311610f5057829003601f168201915b5050505050905090565b60008073ffffffffffffffffffffffffffffffffffffffff168273ffffffffffffffffffffffffffffffffffffffff16141561100e576040517f08c379a000000000000000000000000000000000000000000000000000000000815260040180806020018281038252602a8152602001806131ad602a91396040019150506040518091039061100b612c72565b50505b611055600160008473ffffffffffffffffffffffffffffffffffffffff1673ffffffffffffffffffffffffffffffffffffffff168152602001908152602001600020611c19565b9050919050565b600061107183600a61106c612ce0565b611c2e565b611084600a61107e612ce0565b83611e34565b600a600081611091612ce0565b809291906001019190506110a3612d43565b505050600a6110b0612ce0565b905092915050565b60606007806110c5612ce0565b600181600116156101000203166002900480601f01602080910402602001604051908101604052809291908181526020018280611100612ce0565b6001816001161561010002031660029004801561116c5780601f1061113a57610100808361112c612ce0565b04028352916020019161116c565b820191906000526020600020905b81611151612ce0565b8152906001019060200180831161114857829003601f168201915b5050505050905090565b61117e611774565b73ffffffffffffffffffffffffffffffffffffffff168273ffffffffffffffffffffffffffffffffffffffff161415611228576040517f08c379a00000000000000000000000000000000000000000000000000000000081526004018080602001828103825260198152602001807f4552433732313a20617070726f766520746f2063616c6c65720000000000000081525060200191505060405180910390611225612c72565b50505b8060056000611235611774565b73ffffffffffffffffffffffffffffffffffffffff1673ffffffffffffffffffffffffffffffffffffffff16815260200190815260200160002060008473ffffffffffffffffffffffffffffffffffffffff1673ffffffffffffffffffffffffffffffffffffffff16815260200190815260200160002060006101000a816112bb612ce0565b8160ff021916908315150217906112d0612d43565b5050508173ffffffffffffffffffffffffffffffffffffffff166112f2611774565b73ffffffffffffffffffffffffffffffffffffffff167f17307eab39ab6107e8899845ad3d59bd9653f200f220920489ca2b5937696c318360405180821515815260200191505060405180910390a35050565b611356611350611774565b83611862565b6113b4576040517f08c379a00000000000000000000000000000000000000000000000000000000081526004018080602001828103825260318152602001806132f360319139604001915050604051809103906113b1612c72565b50505b6113c084848484611ec7565b50505050565b60606113d182611757565b61142f576040517f08c379a000000000000000000000000000000000000000000000000000000000815260040180806020018281038252602f8152602001806132a3602f91396040019150506040518091039061142c612c72565b50505b6000600860008481526020019081526020016000208061144d612ce0565b600181600116156101000203166002900480601f01602080910402602001604051908101604052809291908181526020018280611488612ce0565b600181600116156101000203166002900480156114f45780601f106114c25761010080836114b4612ce0565b0402835291602001916114f4565b820191906000526020600020905b816114d9612ce0565b815290600101906020018083116114d057829003601f168201915b505050505090506000611505610ec0565b905060008151141561151b5781925050506116b7565b6000825111156115ec5780826040516020018083805190602001908083835b6020831061155d578051825260208201915060208101905060208303925061153a565b6001836020036101000a03801982511681845116808217855250505050505090500182805190602001908083835b602083106115ae578051825260208201915060208101905060208303925061158b565b6001836020036101000a03801982511681845116808217855250505050505090500192505050604051602081830303815290604052925050506116b7565b806115f685611f42565b6040516020018083805190602001908083835b6020831061162c5780518252602082019150602081019050602083039250611609565b6001836020036101000a03801982511681845116808217855250505050505090500182805190602001908083835b6020831061167d578051825260208201915060208101905060208303925061165a565b6001836020036101000a03801982511681845116808217855250505050505090500192505050604051602081830303815290604052925050505b919050565b6000600560008473ffffffffffffffffffffffffffffffffffffffff1673ffffffffffffffffffffffffffffffffffffffff16815260200190815260200160002060008373ffffffffffffffffffffffffffffffffffffffff1673ffffffffffffffffffffffffffffffffffffffff168152602001908152602001600020600090611745612ce0565b906101000a900460ff16905092915050565b600061176d82600261209290919063ffffffff16565b9050919050565b60005a61177f612da8565b905090565b816004600083815260200190815260200160002060006101000a816117a7612ce0565b8173ffffffffffffffffffffffffffffffffffffffff021916908373ffffffffffffffffffffffffffffffffffffffff160217906117e3612d43565b505050808273ffffffffffffffffffffffffffffffffffffffff1661180783610e89565b73ffffffffffffffffffffffffffffffffffffffff167f8c5be1e5ebec7d5bd14f71427d1e84f3dd0314c0f7b2291e5b200ac8c7c3b92560405160405180910390a45050565b600061185b826000016120ac565b9050919050565b600061186d82611757565b6118cb576040517f08c379a000000000000000000000000000000000000000000000000000000000815260040180806020018281038252602c815260200180613149602c9139604001915050604051809103906118c8612c72565b50505b60006118d683610e89565b90508073ffffffffffffffffffffffffffffffffffffffff168473ffffffffffffffffffffffffffffffffffffffff16148061194557508373ffffffffffffffffffffffffffffffffffffffff1661192d84610b5a565b73ffffffffffffffffffffffffffffffffffffffff16145b80611956575061195581856116bc565b5b91505092915050565b8273ffffffffffffffffffffffffffffffffffffffff1661197f82610e89565b73ffffffffffffffffffffffffffffffffffffffff16146119f4576040517f08c379a000000000000000000000000000000000000000000000000000000000815260040180806020018281038252602981526020018061327a60299139604001915050604051809103906119f1612c72565b50505b600073ffffffffffffffffffffffffffffffffffffffff168273ffffffffffffffffffffffffffffffffffffffff161415611a83576040517f08c379a00000000000000000000000000000000000000000000000000000000081526004018080602001828103825260248152602001806130ff6024913960400191505060405180910390611a80612c72565b50505b611a8e8383836120c4565b611a99600082611784565b611aea81600160008673ffffffffffffffffffffffffffffffffffffffff1673ffffffffffffffffffffffffffffffffffffffff1681526020019081526020016000206120c990919063ffffffff16565b50611b3c81600160008573ffffffffffffffffffffffffffffffffffffffff1673ffffffffffffffffffffffffffffffffffffffff1681526020019081526020016000206120e390919063ffffffff16565b50611b53818360026120fd9092919063ffffffff16565b50808273ffffffffffffffffffffffffffffffffffffffff168473ffffffffffffffffffffffffffffffffffffffff167fddf252ad1be2c89b69c2b068fc378daa952ba7f163c4a11628f55a4df523b3ef60405160405180910390a4505050565b6000611bc38360000183612132565b60001c905092915050565b600080600080611be186600001866121d3565b915091508160001c8160001c9350935050509250929050565b6000611c0d846000018460001b84612291565b60001c90509392505050565b6000611c27826000016123a5565b9050919050565b600073ffffffffffffffffffffffffffffffffffffffff168273ffffffffffffffffffffffffffffffffffffffff161415611cda576040517f08c379a00000000000000000000000000000000000000000000000000000000081526004018080602001828103825260208152602001807f4552433732313a206d696e7420746f20746865207a65726f206164647265737381525060200191505060405180910390611cd7612c72565b50505b611ce381611757565b15611d5f576040517f08c379a000000000000000000000000000000000000000000000000000000000815260040180806020018281038252601c8152602001807f4552433732313a20746f6b656e20616c7265616479206d696e7465640000000081525060200191505060405180910390611d5c612c72565b50505b611d6b600083836120c4565b611dbc81600160008573ffffffffffffffffffffffffffffffffffffffff1673ffffffffffffffffffffffffffffffffffffffff1681526020019081526020016000206120e390919063ffffffff16565b50611dd3818360026120fd9092919063ffffffff16565b50808273ffffffffffffffffffffffffffffffffffffffff16600073ffffffffffffffffffffffffffffffffffffffff167fddf252ad1be2c89b69c2b068fc378daa952ba7f163c4a11628f55a4df523b3ef60405160405180910390a45050565b611e3d82611757565b611e9b576040517f08c379a000000000000000000000000000000000000000000000000000000000815260040180806020018281038252602c81526020018061324e602c913960400191505060405180910390611e98612c72565b50505b80600860008481526020019081526020016000209080519060200190611ec2929190612e05565b505050565b611ed284848461195f565b611ede848484846123bd565b611f3c576040517f08c379a00000000000000000000000000000000000000000000000000000000081526004018080602001828103825260328152602001806130cd6032913960400191505060405180910390611f39612c72565b50505b50505050565b60606000821415611f8a576040518060400160405280600181526020017f3000000000000000000000000000000000000000000000000000000000000000815250905061208d565b600082905060005b60008214611fb4578080600101915050600a8281611fac57fe5b049150611f92565b60008167ffffffffffffffff81118015611fd657600080611fd3612c72565b50505b506040519080825280601f01601f1916602001820160405280156120095781602001600182028036833780820191505090505b50905060006001830390508593505b6000841461208557600a848161202a57fe5b0660300160f81b8282806001900393508151811061204457fe5b60200101907effffffffffffffffffffffffffffffffffffffffffffffffffffffffffffff1916908160001a905350600a848161207d57fe5b049350612018565b819450505050505b919050565b60006120a4836000018360001b6125df565b905092915050565b600081600001806120bb612ce0565b90509050919050565b505050565b60006120db836000018360001b612609565b905092915050565b60006120f5836000018360001b612748565b905092915050565b6000612129846000018460001b8473ffffffffffffffffffffffffffffffffffffffff1660001b6127e1565b90509392505050565b6000818360000180612142612ce0565b9050116121a3576040517f08c379a00000000000000000000000000000000000000000000000000000000081526004018080602001828103825260228152602001806130ab60229139604001915050604051809103906121a0612c72565b50505b8260000182816121b1612ce0565b81106121b957fe5b906000526020600020016121cb612ce0565b905092915050565b6000808284600001806121e4612ce0565b905011612245576040517f08c379a00000000000000000000000000000000000000000000000000000000081526004018080602001828103825260228152602001806132006022913960400191505060405180910390612242612c72565b50505b6000846000018481612255612ce0565b811061225d57fe5b9060005260206000209060020201905080600001612279612ce0565b81600101612285612ce0565b92509250509250929050565b6000808460010160008581526020019081526020016000206122b1612ce0565b905060008114158390612368576040517f08c379a00000000000000000000000000000000000000000000000000000000081526004018080602001828103825283818151815260200191508051906020019080838360005b83811015612324578082015181840152602081019050612309565b50505050905090810190601f1680156123515780820380516001836020036101000a031916815260200191505b509250505060405180910390612365612c72565b50505b5084600001600182038161237a612ce0565b811061238257fe5b906000526020600020906002020160010161239b612ce0565b9150509392505050565b600081600001806123b4612ce0565b90509050919050565b60006123de8473ffffffffffffffffffffffffffffffffffffffff16612906565b6123eb57600190506125d7565b600061255563150b7a0260e01b612400611774565b888787604051602401808573ffffffffffffffffffffffffffffffffffffffff1681526020018473ffffffffffffffffffffffffffffffffffffffff16815260200183815260200180602001828103825283818151815260200191508051906020019080838360005b83811015612484578082015181840152602081019050612469565b50505050905090810190601f1680156124b15780820380516001836020036101000a031916815260200191505b5095505050505050604051602081830303815290604052907bffffffffffffffffffffffffffffffffffffffffffffffffffffffff19166020820180517bffffffffffffffffffffffffffffffffffffffffffffffffffffffff83818316178352505050506040518060600160405280603281526020016130cd603291398773ffffffffffffffffffffffffffffffffffffffff166129209092919063ffffffff16565b9050600081806020019051602081101561257757600080612574612c72565b50505b8101908080519060200190929190505050905063150b7a0260e01b7bffffffffffffffffffffffffffffffffffffffffffffffffffffffff1916817bffffffffffffffffffffffffffffffffffffffffffffffffffffffff191614925050505b949350505050565b6000808360010160008481526020019081526020016000206125ff612ce0565b1415905092915050565b600080836001016000848152602001908152602001600020612629612ce0565b90506000811461273c57600060018203905060006001866000018061264c612ce0565b90500390506000866000018281612661612ce0565b811061266957fe5b9060005260206000200161267b612ce0565b90508087600001848161268c612ce0565b811061269457fe5b9060005260206000200181906126a8612d43565b5050506001830187600101600083815260200190815260200160002081906126ce612d43565b50505086600001806126de612ce0565b806126e557fe5b60019003818190600052602060002001600090612700612d43565b50509061270b612d43565b505086600101600087815260200190815260200160002060009061272d612d43565b50506001945050505050612742565b60009150505b92915050565b60006127548383612938565b6127d6578260000182908060018161276a612ce0565b018082612775612d43565b505080915050600190039060005260206000200160009091909190915061279a612d43565b505082600001806127a9612ce0565b905083600101600084815260200190815260200160002081906127ca612d43565b505050600190506127db565b600090505b92915050565b600080846001016000858152602001908152602001600020612801612ce0565b905060008114156128c157846000016040518060400160405280868152602001858152509080600181612832612ce0565b01808261283d612d43565b50508091505060019003906000526020600020906002020160009091909190915060008201518160000161286f612d43565b5050602082015181600101612882612d43565b505050508460000180612893612ce0565b905085600101600086815260200190815260200160002081906128b4612d43565b50505060019150506128ff565b828560000160018303816128d3612ce0565b81106128db57fe5b906000526020600020906002020160010181906128f6612d43565b50505060009150505b9392505050565b60008082612912612ebe565b905060008111915050919050565b606061292f8484600085612962565b90509392505050565b600080836001016000848152602001908152602001600020612958612ce0565b1415905092915050565b6060825a61296e612f21565b10156129ce576040517f08c379a000000000000000000000000000000000000000000000000000000000815260040180806020018281038252602681526020018061312360269139604001915050604051809103906129cb612c72565b50505b6129d785612906565b612a52576040517f08c379a000000000000000000000000000000000000000000000000000000000815260040180806020018281038252601d8152602001807f416464726573733a2063616c6c20746f206e6f6e2d636f6e747261637400000081525060200191505060405180910390612a4f612c72565b50505b6000808673ffffffffffffffffffffffffffffffffffffffff1685876040518082805190602001908083835b60208310612aa15780518252602082019150602081019050602083039250612a7e565b6001836020036101000a03801982511681845116808217855250505050505090500191505060006040518083038185875a612ada612f7e565b505050505050925050503d8060008114612b10576040519150601f19603f3d011682016040523d82523d6000602084013e612b15565b606091505b5091509150612b25828286612b31565b92505050949350505050565b60608315612b4157829050612c0e565b600083511115612b625782518084602001612b5a612c72565b505050612c0d565b816040517f08c379a00000000000000000000000000000000000000000000000000000000081526004018080602001828103825283818151815260200191508051906020019080838360005b83811015612bc9578082015181840152602081019050612bae565b50505050905090810190601f168015612bf65780820380516001836020036101000a031916815260200191505b509250505060405180910390612c0a612c72565b50505b5b9392505050565b63a8c4c5ec598160e01b8152602081600483336000905af158600e01573d6000803e3d6000fd5b3d6001141558600a015760016000f35b8051935060005b6040811015612c6d57600081830152602081019050612c53565b505050565b632a2a7adb598160e01b8152600481016020815285602082015260005b86811015612cad578086015181604084010152602081019050612c8f565b506020828760640184336000905af158600e01573d6000803e3d6000fd5b3d6001141558600a015760016000f35b505050565b6303daa959598160e01b8152836004820152602081602483336000905af158600e01573d6000803e3d6000fd5b3d6001141558600a015760016000f35b8051935060005b6040811015612d3e57600081830152602081019050612d24565b505050565b6322bd64c0598160e01b8152836004820152846024820152600081604483336000905af158600e01573d6000803e3d6000fd5b3d6001141558600a015760016000f35b60005b6040811015612da357600081830152602081019050612d89565b505050565b6373509064598160e01b8152602081600483336000905af158600e01573d6000803e3d6000fd5b3d6001141558600a015760016000f35b8051935060005b6040811015612e0057600081830152602081019050612de6565b505050565b8280612e0f612ce0565b600181600116156101000203166002900490600052602060002090601f016020900481019282612e4b57600085612e44612d43565b5050612ead565b82601f10612e6d57805160ff19168380011785612e66612d43565b5050612ead565b82800160010185612e7c612d43565b50508215612ead579182015b82811115612eac57825182612e9b612d43565b505091602001919060010190612e88565b5b509050612eba9190613084565b5090565b638435035b598160e01b8152836004820152602081602483336000905af158600e01573d6000803e3d6000fd5b3d6001141558600a015760016000f35b8051935060005b6040811015612f1c57600081830152602081019050612f02565b505050565b6308bf7dbf598160e01b8152602081600483336000905af158600e01573d6000803e3d6000fd5b3d6001141558600a015760016000f35b8051935060005b6040811015612f7957600081830152602081019050612f5f565b505050565b635b99d1c5598160e01b8152612fbd565b600081905081831115612fa0578290505b92915050565b600081905081831015612fb7578290505b92915050565b8360048201528460248201528560448201526080606482015287608482015260a4810160005b89811015612ffe578089015181830152602081019050612fe3565b506060828a60c40184336000905af158600e01573d6000803e3d6000fd5b3d6001141558600a015760016000f35b815160408301513d6000853e8c8c82606087013350600060045af150596130538e3d612fa6565b8d0161305f8187612f8f565b5b828110156130775760008152602081019050613060565b50839e5050505050505050565b5b808211156130a65760008160009061309b612d43565b505050600101613085565b509056fe456e756d657261626c655365743a20696e646578206f7574206f6620626f756e64734552433732313a207472616e7366657220746f206e6f6e20455243373231526563656976657220696d706c656d656e7465724552433732313a207472616e7366657220746f20746865207a65726f2061646472657373416464726573733a20696e73756666696369656e742062616c616e636520666f722063616c6c4552433732313a206f70657261746f7220717565727920666f72206e6f6e6578697374656e7420746f6b656e4552433732313a20617070726f76652063616c6c6572206973206e6f74206f776e6572206e6f7220617070726f76656420666f7220616c6c4552433732313a2062616c616e636520717565727920666f7220746865207a65726f20616464726573734552433732313a206f776e657220717565727920666f72206e6f6e6578697374656e7420746f6b656e456e756d657261626c654d61703a20696e646578206f7574206f6620626f756e64734552433732313a20617070726f76656420717565727920666f72206e6f6e6578697374656e7420746f6b656e4552433732314d657461646174613a2055524920736574206f66206e6f6e6578697374656e7420746f6b656e4552433732313a207472616e73666572206f6620746f6b656e2074686174206973206e6f74206f776e4552433732314d657461646174613a2055524920717565727920666f72206e6f6e6578697374656e7420746f6b656e4552433732313a20617070726f76616c20746f2063757272656e74206f776e65724552433732313a207472616e736665722063616c6c6572206973206e6f74206f776e6572206e6f7220617070726f766564",
  "devdoc": {
    "kind": "dev",
    "methods": {
      "approve(address,uint256)": {
        "details": "See {IERC721-approve}."
      },
      "balanceOf(address)": {
        "details": "See {IERC721-balanceOf}."
      },
      "baseURI()": {
        "details": "Returns the base URI set via {_setBaseURI}. This will be automatically added as a prefix in {tokenURI} to each token's URI, or to the token ID if no specific URI is set for that token ID."
      },
      "getApproved(uint256)": {
        "details": "See {IERC721-getApproved}."
      },
      "isApprovedForAll(address,address)": {
        "details": "See {IERC721-isApprovedForAll}."
      },
      "name()": {
        "details": "See {IERC721Metadata-name}."
      },
      "ownerOf(uint256)": {
        "details": "See {IERC721-ownerOf}."
      },
      "safeTransferFrom(address,address,uint256)": {
        "details": "See {IERC721-safeTransferFrom}."
      },
      "safeTransferFrom(address,address,uint256,bytes)": {
        "details": "See {IERC721-safeTransferFrom}."
      },
      "setApprovalForAll(address,bool)": {
        "details": "See {IERC721-setApprovalForAll}."
      },
      "supportsInterface(bytes4)": {
        "details": "See {IERC165-supportsInterface}. Time complexity O(1), guaranteed to always use less than 30 000 gas."
      },
      "symbol()": {
        "details": "See {IERC721Metadata-symbol}."
      },
      "tokenByIndex(uint256)": {
        "details": "See {IERC721Enumerable-tokenByIndex}."
      },
      "tokenOfOwnerByIndex(address,uint256)": {
        "details": "See {IERC721Enumerable-tokenOfOwnerByIndex}."
      },
      "tokenURI(uint256)": {
        "details": "See {IERC721Metadata-tokenURI}."
      },
      "totalSupply()": {
        "details": "See {IERC721Enumerable-totalSupply}."
      },
      "transferFrom(address,address,uint256)": {
        "details": "See {IERC721-transferFrom}."
      }
    },
    "version": 1
  },
  "userdoc": {
    "kind": "user",
    "methods": {},
    "version": 1
  },
  "storageLayout": {
    "storage": [
      {
        "astId": 58,
        "contract": "contracts/MetisERC721.sol:MetisERC721",
        "label": "_supportedInterfaces",
        "offset": 0,
        "slot": "0",
        "type": "t_mapping(t_bytes4,t_bool)"
      },
      {
        "astId": 514,
        "contract": "contracts/MetisERC721.sol:MetisERC721",
        "label": "_holderTokens",
        "offset": 0,
        "slot": "1",
        "type": "t_mapping(t_address,t_struct(UintSet)2880_storage)"
      },
      {
        "astId": 516,
        "contract": "contracts/MetisERC721.sol:MetisERC721",
        "label": "_tokenOwners",
        "offset": 0,
        "slot": "2",
        "type": "t_struct(UintToAddressMap)2257_storage"
      },
      {
        "astId": 520,
        "contract": "contracts/MetisERC721.sol:MetisERC721",
        "label": "_tokenApprovals",
        "offset": 0,
        "slot": "4",
        "type": "t_mapping(t_uint256,t_address)"
      },
      {
        "astId": 526,
        "contract": "contracts/MetisERC721.sol:MetisERC721",
        "label": "_operatorApprovals",
        "offset": 0,
        "slot": "5",
        "type": "t_mapping(t_address,t_mapping(t_address,t_bool))"
      },
      {
        "astId": 528,
        "contract": "contracts/MetisERC721.sol:MetisERC721",
        "label": "_name",
        "offset": 0,
        "slot": "6",
        "type": "t_string_storage"
      },
      {
        "astId": 530,
        "contract": "contracts/MetisERC721.sol:MetisERC721",
        "label": "_symbol",
        "offset": 0,
        "slot": "7",
        "type": "t_string_storage"
      },
      {
        "astId": 534,
        "contract": "contracts/MetisERC721.sol:MetisERC721",
        "label": "_tokenURIs",
        "offset": 0,
        "slot": "8",
        "type": "t_mapping(t_uint256,t_string_storage)"
      },
      {
        "astId": 536,
        "contract": "contracts/MetisERC721.sol:MetisERC721",
        "label": "_baseURI",
        "offset": 0,
        "slot": "9",
        "type": "t_string_storage"
      },
      {
        "astId": 6,
        "contract": "contracts/MetisERC721.sol:MetisERC721",
        "label": "_tokenIds",
        "offset": 0,
        "slot": "10",
        "type": "t_uint256"
      }
    ],
    "types": {
      "t_address": {
        "encoding": "inplace",
        "label": "address",
        "numberOfBytes": "20"
      },
      "t_array(t_bytes32)dyn_storage": {
        "base": "t_bytes32",
        "encoding": "dynamic_array",
        "label": "bytes32[]",
        "numberOfBytes": "32"
      },
      "t_array(t_struct(MapEntry)1931_storage)dyn_storage": {
        "base": "t_struct(MapEntry)1931_storage",
        "encoding": "dynamic_array",
        "label": "struct EnumerableMap.MapEntry[]",
        "numberOfBytes": "32"
      },
      "t_bool": {
        "encoding": "inplace",
        "label": "bool",
        "numberOfBytes": "1"
      },
      "t_bytes32": {
        "encoding": "inplace",
        "label": "bytes32",
        "numberOfBytes": "32"
      },
      "t_bytes4": {
        "encoding": "inplace",
        "label": "bytes4",
        "numberOfBytes": "4"
      },
      "t_mapping(t_address,t_bool)": {
        "encoding": "mapping",
        "key": "t_address",
        "label": "mapping(address => bool)",
        "numberOfBytes": "32",
        "value": "t_bool"
      },
      "t_mapping(t_address,t_mapping(t_address,t_bool))": {
        "encoding": "mapping",
        "key": "t_address",
        "label": "mapping(address => mapping(address => bool))",
        "numberOfBytes": "32",
        "value": "t_mapping(t_address,t_bool)"
      },
      "t_mapping(t_address,t_struct(UintSet)2880_storage)": {
        "encoding": "mapping",
        "key": "t_address",
        "label": "mapping(address => struct EnumerableSet.UintSet)",
        "numberOfBytes": "32",
        "value": "t_struct(UintSet)2880_storage"
      },
      "t_mapping(t_bytes32,t_uint256)": {
        "encoding": "mapping",
        "key": "t_bytes32",
        "label": "mapping(bytes32 => uint256)",
        "numberOfBytes": "32",
        "value": "t_uint256"
      },
      "t_mapping(t_bytes4,t_bool)": {
        "encoding": "mapping",
        "key": "t_bytes4",
        "label": "mapping(bytes4 => bool)",
        "numberOfBytes": "32",
        "value": "t_bool"
      },
      "t_mapping(t_uint256,t_address)": {
        "encoding": "mapping",
        "key": "t_uint256",
        "label": "mapping(uint256 => address)",
        "numberOfBytes": "32",
        "value": "t_address"
      },
      "t_mapping(t_uint256,t_string_storage)": {
        "encoding": "mapping",
        "key": "t_uint256",
        "label": "mapping(uint256 => string)",
        "numberOfBytes": "32",
        "value": "t_string_storage"
      },
      "t_string_storage": {
        "encoding": "bytes",
        "label": "string",
        "numberOfBytes": "32"
      },
      "t_struct(Map)1939_storage": {
        "encoding": "inplace",
        "label": "struct EnumerableMap.Map",
        "members": [
          {
            "astId": 1934,
            "contract": "contracts/MetisERC721.sol:MetisERC721",
            "label": "_entries",
            "offset": 0,
            "slot": "0",
            "type": "t_array(t_struct(MapEntry)1931_storage)dyn_storage"
          },
          {
            "astId": 1938,
            "contract": "contracts/MetisERC721.sol:MetisERC721",
            "label": "_indexes",
            "offset": 0,
            "slot": "1",
            "type": "t_mapping(t_bytes32,t_uint256)"
          }
        ],
        "numberOfBytes": "64"
      },
      "t_struct(MapEntry)1931_storage": {
        "encoding": "inplace",
        "label": "struct EnumerableMap.MapEntry",
        "members": [
          {
            "astId": 1928,
            "contract": "contracts/MetisERC721.sol:MetisERC721",
            "label": "_key",
            "offset": 0,
            "slot": "0",
            "type": "t_bytes32"
          },
          {
            "astId": 1930,
            "contract": "contracts/MetisERC721.sol:MetisERC721",
            "label": "_value",
            "offset": 0,
            "slot": "1",
            "type": "t_bytes32"
          }
        ],
        "numberOfBytes": "64"
      },
      "t_struct(Set)2494_storage": {
        "encoding": "inplace",
        "label": "struct EnumerableSet.Set",
        "members": [
          {
            "astId": 2489,
            "contract": "contracts/MetisERC721.sol:MetisERC721",
            "label": "_values",
            "offset": 0,
            "slot": "0",
            "type": "t_array(t_bytes32)dyn_storage"
          },
          {
            "astId": 2493,
            "contract": "contracts/MetisERC721.sol:MetisERC721",
            "label": "_indexes",
            "offset": 0,
            "slot": "1",
            "type": "t_mapping(t_bytes32,t_uint256)"
          }
        ],
        "numberOfBytes": "64"
      },
      "t_struct(UintSet)2880_storage": {
        "encoding": "inplace",
        "label": "struct EnumerableSet.UintSet",
        "members": [
          {
            "astId": 2879,
            "contract": "contracts/MetisERC721.sol:MetisERC721",
            "label": "_inner",
            "offset": 0,
            "slot": "0",
            "type": "t_struct(Set)2494_storage"
          }
        ],
        "numberOfBytes": "64"
      },
      "t_struct(UintToAddressMap)2257_storage": {
        "encoding": "inplace",
        "label": "struct EnumerableMap.UintToAddressMap",
        "members": [
          {
            "astId": 2256,
            "contract": "contracts/MetisERC721.sol:MetisERC721",
            "label": "_inner",
            "offset": 0,
            "slot": "0",
            "type": "t_struct(Map)1939_storage"
          }
        ],
        "numberOfBytes": "64"
      },
      "t_uint256": {
        "encoding": "inplace",
        "label": "uint256",
        "numberOfBytes": "32"
      }
    }
  }
}