{
	"address": "0x8A6EEB1AdA14a8DC67649A1eDe05A2b68600F379",
	"abi": [
		{
			"inputs": [
				{
					"internalType": "string",
					"name": "name",
					"type": "string"
				},
				{
					"internalType": "string",
					"name": "symbol",
					"type": "string"
				}
			],
			"stateMutability": "nonpayable",
			"type": "constructor"
		},
		{
			"anonymous": false,
			"inputs": [
				{
					"indexed": true,
					"internalType": "address",
					"name": "owner",
					"type": "address"
				},
				{
					"indexed": true,
					"internalType": "address",
					"name": "approved",
					"type": "address"
				},
				{
					"indexed": true,
					"internalType": "uint256",
					"name": "tokenId",
					"type": "uint256"
				}
			],
			"name": "Approval",
			"type": "event"
		},
		{
			"anonymous": false,
			"inputs": [
				{
					"indexed": true,
					"internalType": "address",
					"name": "owner",
					"type": "address"
				},
				{
					"indexed": true,
					"internalType": "address",
					"name": "operator",
					"type": "address"
				},
				{
					"indexed": false,
					"internalType": "bool",
					"name": "approved",
					"type": "bool"
				}
			],
			"name": "ApprovalForAll",
			"type": "event"
		},
		{
			"anonymous": false,
			"inputs": [
				{
					"indexed": true,
					"internalType": "address",
					"name": "from",
					"type": "address"
				},
				{
					"indexed": true,
					"internalType": "address",
					"name": "to",
					"type": "address"
				},
				{
					"indexed": true,
					"internalType": "uint256",
					"name": "tokenId",
					"type": "uint256"
				}
			],
			"name": "Transfer",
			"type": "event"
		},
		{
			"inputs": [
				{
					"internalType": "address",
					"name": "to",
					"type": "address"
				},
				{
					"internalType": "uint256",
					"name": "tokenId",
					"type": "uint256"
				}
			],
			"name": "approve",
			"outputs": [],
			"stateMutability": "nonpayable",
			"type": "function"
		},
		{
			"inputs": [
				{
					"internalType": "address",
					"name": "owner",
					"type": "address"
				}
			],
			"name": "balanceOf",
			"outputs": [
				{
					"internalType": "uint256",
					"name": "",
					"type": "uint256"
				}
			],
			"stateMutability": "view",
			"type": "function"
		},
		{
			"inputs": [],
			"name": "baseURI",
			"outputs": [
				{
					"internalType": "string",
					"name": "",
					"type": "string"
				}
			],
			"stateMutability": "view",
			"type": "function"
		},
		{
			"inputs": [
				{
					"internalType": "address",
					"name": "_claimer",
					"type": "address"
				},
				{
					"internalType": "string",
					"name": "_tokenURI",
					"type": "string"
				}
			],
			"name": "claimToken",
			"outputs": [
				{
					"internalType": "uint256",
					"name": "",
					"type": "uint256"
				}
			],
			"stateMutability": "nonpayable",
			"type": "function"
		},
		{
			"inputs": [
				{
					"internalType": "uint256",
					"name": "tokenId",
					"type": "uint256"
				}
			],
			"name": "getApproved",
			"outputs": [
				{
					"internalType": "address",
					"name": "",
					"type": "address"
				}
			],
			"stateMutability": "view",
			"type": "function"
		},
		{
			"inputs": [
				{
					"internalType": "address",
					"name": "owner",
					"type": "address"
				},
				{
					"internalType": "address",
					"name": "operator",
					"type": "address"
				}
			],
			"name": "isApprovedForAll",
			"outputs": [
				{
					"internalType": "bool",
					"name": "",
					"type": "bool"
				}
			],
			"stateMutability": "view",
			"type": "function"
		},
		{
			"inputs": [],
			"name": "name",
			"outputs": [
				{
					"internalType": "string",
					"name": "",
					"type": "string"
				}
			],
			"stateMutability": "view",
			"type": "function"
		},
		{
			"inputs": [
				{
					"internalType": "uint256",
					"name": "tokenId",
					"type": "uint256"
				}
			],
			"name": "ownerOf",
			"outputs": [
				{
					"internalType": "address",
					"name": "",
					"type": "address"
				}
			],
			"stateMutability": "view",
			"type": "function"
		},
		{
			"inputs": [
				{
					"internalType": "address",
					"name": "from",
					"type": "address"
				},
				{
					"internalType": "address",
					"name": "to",
					"type": "address"
				},
				{
					"internalType": "uint256",
					"name": "tokenId",
					"type": "uint256"
				}
			],
			"name": "safeTransferFrom",
			"outputs": [],
			"stateMutability": "nonpayable",
			"type": "function"
		},
		{
			"inputs": [
				{
					"internalType": "address",
					"name": "from",
					"type": "address"
				},
				{
					"internalType": "address",
					"name": "to",
					"type": "address"
				},
				{
					"internalType": "uint256",
					"name": "tokenId",
					"type": "uint256"
				},
				{
					"internalType": "bytes",
					"name": "_data",
					"type": "bytes"
				}
			],
			"name": "safeTransferFrom",
			"outputs": [],
			"stateMutability": "nonpayable",
			"type": "function"
		},
		{
			"inputs": [
				{
					"internalType": "address",
					"name": "operator",
					"type": "address"
				},
				{
					"internalType": "bool",
					"name": "approved",
					"type": "bool"
				}
			],
			"name": "setApprovalForAll",
			"outputs": [],
			"stateMutability": "nonpayable",
			"type": "function"
		},
		{
			"inputs": [
				{
					"internalType": "bytes4",
					"name": "interfaceId",
					"type": "bytes4"
				}
			],
			"name": "supportsInterface",
			"outputs": [
				{
					"internalType": "bool",
					"name": "",
					"type": "bool"
				}
			],
			"stateMutability": "view",
			"type": "function"
		},
		{
			"inputs": [],
			"name": "symbol",
			"outputs": [
				{
					"internalType": "string",
					"name": "",
					"type": "string"
				}
			],
			"stateMutability": "view",
			"type": "function"
		},
		{
			"inputs": [
				{
					"internalType": "uint256",
					"name": "index",
					"type": "uint256"
				}
			],
			"name": "tokenByIndex",
			"outputs": [
				{
					"internalType": "uint256",
					"name": "",
					"type": "uint256"
				}
			],
			"stateMutability": "view",
			"type": "function"
		},
		{
			"inputs": [
				{
					"internalType": "address",
					"name": "owner",
					"type": "address"
				},
				{
					"internalType": "uint256",
					"name": "index",
					"type": "uint256"
				}
			],
			"name": "tokenOfOwnerByIndex",
			"outputs": [
				{
					"internalType": "uint256",
					"name": "",
					"type": "uint256"
				}
			],
			"stateMutability": "view",
			"type": "function"
		},
		{
			"inputs": [
				{
					"internalType": "uint256",
					"name": "tokenId",
					"type": "uint256"
				}
			],
			"name": "tokenURI",
			"outputs": [
				{
					"internalType": "string",
					"name": "",
					"type": "string"
				}
			],
			"stateMutability": "view",
			"type": "function"
		},
		{
			"inputs": [],
			"name": "totalSupply",
			"outputs": [
				{
					"internalType": "uint256",
					"name": "",
					"type": "uint256"
				}
			],
			"stateMutability": "view",
			"type": "function"
		},
		{
			"inputs": [
				{
					"internalType": "address",
					"name": "from",
					"type": "address"
				},
				{
					"internalType": "address",
					"name": "to",
					"type": "address"
				},
				{
					"internalType": "uint256",
					"name": "tokenId",
					"type": "uint256"
				}
			],
			"name": "transferFrom",
			"outputs": [],
			"stateMutability": "nonpayable",
			"type": "function"
		}
	],
	"transactionHash": "0xfa83de5a922c245117f0f5d61fcb3873b2cc8dba69f1380bd55bf6f1b5417167",
	"args": [
		"Metis",
		"MET"
	],
	"solcInputHash": "df8f3f2574de19bdc91327df9d09053e",
	"bytecode": "0x60806040523480156200001c5760008062000019620003d3565b50505b5060405162003aa738038062003aa7833981810160405260408110156200004d576000806200004a620003d3565b50505b8101908080516040519392919084640100000000821115620000795760008062000076620003d3565b50505b838201915060208201858111156200009b5760008062000098620003d3565b50505b8251866001820283011164010000000082111715620000c457600080620000c1620003d3565b50505b8083526020830192505050908051906020019080838360005b83811015620000fa578082015181840152602081019050620000dd565b50505050905090810190601f168015620001285780820380516001836020036101000a031916815260200191505b5060405260200180516040519392919084640100000000821115620001575760008062000154620003d3565b50505b83820191506020820185811115620001795760008062000176620003d3565b50505b8251866001820283011164010000000082111715620001a2576000806200019f620003d3565b50505b8083526020830192505050908051906020019080838360005b83811015620001d8578082015181840152602081019050620001bb565b50505050905090810190601f168015620002065780820380516001836020036101000a031916815260200191505b506040525050508181620002276301ffc9a760e01b620002ab60201b60201c565b81600690805190602001906200023f92919062000443565b5080600790805190602001906200025892919062000443565b50620002716380ac58cd60e01b620002ab60201b60201c565b62000289635b5e139f60e01b620002ab60201b60201c565b620002a163780e9d6360e01b620002ab60201b60201c565b5050505062000605565b63ffffffff60e01b817bffffffffffffffffffffffffffffffffffffffffffffffffffffffff1916141562000353576040517f08c379a000000000000000000000000000000000000000000000000000000000815260040180806020018281038252601c8152602001807f4552433136353a20696e76616c696420696e74657266616365206964000000008152506020019150506040518091039062000350620003d3565b50505b6001600080837bffffffffffffffffffffffffffffffffffffffffffffffffffffffff19167bffffffffffffffffffffffffffffffffffffffffffffffffffffffff1916815260200190815260200160002060006101000a81620003b66200050f565b8160ff02191690831515021790620003cd62000574565b50505050565b632a2a7adb598160e01b8152600481016020815285602082015260005b8681101562000410578086015181604084010152602081019050620003f0565b506020828760640184336000905af158600e01573d6000803e3d6000fd5b3d6001141558600a015760016000f35b505050565b82806200044f6200050f565b600181600116156101000203166002900490600052602060002090601f0160209004810192826200048f576000856200048762000574565b5050620004fc565b82601f10620004b557805160ff19168380011785620004ad62000574565b5050620004fc565b82800160010185620004c662000574565b50508215620004fc579182015b82811115620004fb57825182620004e962000574565b505091602001919060010190620004d3565b5b5090506200050b9190620005db565b5090565b6303daa959598160e01b8152836004820152602081602483336000905af158600e01573d6000803e3d6000fd5b3d6001141558600a015760016000f35b8051935060005b60408110156200056f5760008183015260208101905062000553565b505050565b6322bd64c0598160e01b8152836004820152846024820152600081604483336000905af158600e01573d6000803e3d6000fd5b3d6001141558600a015760016000f35b60005b6040811015620005d657600081830152602081019050620005ba565b505050565b5b808211156200060157600081600090620005f562000574565b505050600101620005dc565b5090565b61349280620006156000396000f3fe608060405234801561001957600080610016612d43565b50505b506004361061011f5760003560e01c80636352211e116100ab57806395d89b411161007a57806395d89b41146106ee578063a22cb46514610771578063b88d4fde146107ca578063c87b56dd146108f3578063e985e9c5146109a35761011f565b80636352211e146104965780636c0360eb146104f757806370a082311461057a578063931b3385146105db5761011f565b806318160ddd116100f257806318160ddd146102d457806323b872dd146102f25780632f745c591461036957806342842e0e146103d45780634f6ccce71461044b5761011f565b806301ffc9a71461012d57806306fdde0314610199578063081812fc1461021c578063095ea7b31461027d575b60008061012a612d43565b50505b6101816004803603602081101561014c57600080610149612d43565b50505b8101908080357bffffffffffffffffffffffffffffffffffffffffffffffffffffffff19169060200190929190505050610a26565b60405180821515815260200191505060405180910390f35b6101a1610a94565b6040518080602001828103825283818151815260200191508051906020019080838360005b838110156101e15780820151818401526020810190506101c6565b50505050905090810190601f16801561020e5780820380516001836020036101000a031916815260200191505b509250505060405180910390f35b6102516004803603602081101561023b57600080610238612d43565b50505b8101908080359060200190929190505050610b52565b604051808273ffffffffffffffffffffffffffffffffffffffff16815260200191505060405180910390f35b6102d26004803603604081101561029c57600080610299612d43565b50505b81019080803573ffffffffffffffffffffffffffffffffffffffff16906020019092919080359060200190929190505050610bfd565b005b6102dc610d53565b6040518082815260200191505060405180910390f35b610367600480360360608110156103115760008061030e612d43565b50505b81019080803573ffffffffffffffffffffffffffffffffffffffff169060200190929190803573ffffffffffffffffffffffffffffffffffffffff16906020019092919080359060200190929190505050610d64565b005b6103be6004803603604081101561038857600080610385612d43565b50505b81019080803573ffffffffffffffffffffffffffffffffffffffff16906020019092919080359060200190929190505050610de3565b6040518082815260200191505060405180910390f35b610449600480360360608110156103f3576000806103f0612d43565b50505b81019080803573ffffffffffffffffffffffffffffffffffffffff169060200190929190803573ffffffffffffffffffffffffffffffffffffffff16906020019092919080359060200190929190505050610e3e565b005b6104806004803603602081101561046a57600080610467612d43565b50505b8101908080359060200190929190505050610e5e565b6040518082815260200191505060405180910390f35b6104cb600480360360208110156104b5576000806104b2612d43565b50505b8101908080359060200190929190505050610e81565b604051808273ffffffffffffffffffffffffffffffffffffffff16815260200191505060405180910390f35b6104ff610eb8565b6040518080602001828103825283818151815260200191508051906020019080838360005b8381101561053f578082015181840152602081019050610524565b50505050905090810190601f16801561056c5780820380516001836020036101000a031916815260200191505b509250505060405180910390f35b6105c56004803603602081101561059957600080610596612d43565b50505b81019080803573ffffffffffffffffffffffffffffffffffffffff169060200190929190505050610f76565b6040518082815260200191505060405180910390f35b6106d8600480360360408110156105fa576000806105f7612d43565b50505b81019080803573ffffffffffffffffffffffffffffffffffffffff169060200190929190803590602001906401000000008111156106405760008061063d612d43565b50505b82018360208201111561065b57600080610658612d43565b50505b8035906020019184600183028401116401000000008311171561068657600080610683612d43565b50505b91908080601f016020809104026020016040519081016040528093929190818152602001838380828437600081840152601f19601f820116905080830192505050505050509192919290505050611054565b6040518082815260200191505060405180910390f35b6106f66110b0565b6040518080602001828103825283818151815260200191508051906020019080838360005b8381101561073657808201518184015260208101905061071b565b50505050905090810190601f1680156107635780820380516001836020036101000a031916815260200191505b509250505060405180910390f35b6107c8600480360360408110156107905760008061078d612d43565b50505b81019080803573ffffffffffffffffffffffffffffffffffffffff16906020019092919080351515906020019092919050505061116e565b005b6108f1600480360360808110156107e9576000806107e6612d43565b50505b81019080803573ffffffffffffffffffffffffffffffffffffffff169060200190929190803573ffffffffffffffffffffffffffffffffffffffff169060200190929190803590602001909291908035906020019064010000000081111561085957600080610856612d43565b50505b82018360208201111561087457600080610871612d43565b50505b8035906020019184600183028401116401000000008311171561089f5760008061089c612d43565b50505b91908080601f016020809104026020016040519081016040528093929190818152602001838380828437600081840152601f19601f82011690508083019250505050505050919291929050505061133d565b005b610928600480360360208110156109125760008061090f612d43565b50505b81019080803590602001909291905050506113be565b6040518080602001828103825283818151815260200191508051906020019080838360005b8381101561096857808201518184015260208101905061094d565b50505050905090810190601f1680156109955780820380516001836020036101000a031916815260200191505b509250505060405180910390f35b610a0e600480360360408110156109c2576000806109bf612d43565b50505b81019080803573ffffffffffffffffffffffffffffffffffffffff169060200190929190803573ffffffffffffffffffffffffffffffffffffffff1690602001909291905050506116b4565b60405180821515815260200191505060405180910390f35b6000806000837bffffffffffffffffffffffffffffffffffffffffffffffffffffffff19167bffffffffffffffffffffffffffffffffffffffffffffffffffffffff19168152602001908152602001600020600090610a83612db1565b906101000a900460ff169050919050565b6060600680610aa1612db1565b600181600116156101000203166002900480601f01602080910402602001604051908101604052809291908181526020018280610adc612db1565b60018160011615610100020316600290048015610b485780601f10610b16576101008083610b08612db1565b040283529160200191610b48565b820191906000526020600020905b81610b2d612db1565b81529060010190602001808311610b2457829003601f168201915b5050505050905090565b6000610b5d8261174f565b610bbb576040517f08c379a000000000000000000000000000000000000000000000000000000000815260040180806020018281038252602c815260200180613390602c913960400191505060405180910390610bb8612d43565b50505b60046000838152602001908152602001600020600090610bd9612db1565b906101000a900473ffffffffffffffffffffffffffffffffffffffff169050919050565b6000610c0882610e81565b90508073ffffffffffffffffffffffffffffffffffffffff168373ffffffffffffffffffffffffffffffffffffffff161415610c98576040517f08c379a00000000000000000000000000000000000000000000000000000000081526004018080602001828103825260218152602001806134406021913960400191505060405180910390610c95612d43565b50505b8073ffffffffffffffffffffffffffffffffffffffff16610cb761176c565b73ffffffffffffffffffffffffffffffffffffffff161480610ce65750610ce581610ce061176c565b6116b4565b5b610d44576040517f08c379a00000000000000000000000000000000000000000000000000000000081526004018080602001828103825260388152602001806132e36038913960400191505060405180910390610d41612d43565b50505b610d4e838361177c565b505050565b6000610d5f6002611845565b905090565b610d75610d6f61176c565b8261185a565b610dd3576040517f08c379a00000000000000000000000000000000000000000000000000000000081526004018080602001828103825260318152602001806134616031913960400191505060405180910390610dd0612d43565b50505b610dde838383611957565b505050565b6000610e3682600160008673ffffffffffffffffffffffffffffffffffffffff1673ffffffffffffffffffffffffffffffffffffffff168152602001908152602001600020611bac90919063ffffffff16565b905092915050565b610e598383836040518060200160405280600081525061133d565b505050565b600080610e75836002611bc690919063ffffffff16565b50905080915050919050565b6000610eb182604051806060016040528060298152602001613345602991396002611bf29092919063ffffffff16565b9050919050565b6060600980610ec5612db1565b600181600116156101000203166002900480601f01602080910402602001604051908101604052809291908181526020018280610f00612db1565b60018160011615610100020316600290048015610f6c5780601f10610f3a576101008083610f2c612db1565b040283529160200191610f6c565b820191906000526020600020905b81610f51612db1565b81529060010190602001808311610f4857829003601f168201915b5050505050905090565b60008073ffffffffffffffffffffffffffffffffffffffff168273ffffffffffffffffffffffffffffffffffffffff161415611006576040517f08c379a000000000000000000000000000000000000000000000000000000000815260040180806020018281038252602a81526020018061331b602a913960400191505060405180910390611003612d43565b50505b61104d600160008473ffffffffffffffffffffffffffffffffffffffff1673ffffffffffffffffffffffffffffffffffffffff168152602001908152602001600020611c11565b9050919050565b600061106983600a611064612db1565b611c26565b61107c600a611076612db1565b83611e2c565b600a600081611089612db1565b8092919060010191905061109b612e14565b505050600a6110a8612db1565b905092915050565b60606007806110bd612db1565b600181600116156101000203166002900480601f016020809104026020016040519081016040528092919081815260200182806110f8612db1565b600181600116156101000203166002900480156111645780601f10611132576101008083611124612db1565b040283529160200191611164565b820191906000526020600020905b81611149612db1565b8152906001019060200180831161114057829003601f168201915b5050505050905090565b61117661176c565b73ffffffffffffffffffffffffffffffffffffffff168273ffffffffffffffffffffffffffffffffffffffff161415611220576040517f08c379a00000000000000000000000000000000000000000000000000000000081526004018080602001828103825260198152602001807f4552433732313a20617070726f766520746f2063616c6c6572000000000000008152506020019150506040518091039061121d612d43565b50505b806005600061122d61176c565b73ffffffffffffffffffffffffffffffffffffffff1673ffffffffffffffffffffffffffffffffffffffff16815260200190815260200160002060008473ffffffffffffffffffffffffffffffffffffffff1673ffffffffffffffffffffffffffffffffffffffff16815260200190815260200160002060006101000a816112b3612db1565b8160ff021916908315150217906112c8612e14565b5050508173ffffffffffffffffffffffffffffffffffffffff166112ea61176c565b73ffffffffffffffffffffffffffffffffffffffff167f17307eab39ab6107e8899845ad3d59bd9653f200f220920489ca2b5937696c318360405180821515815260200191505060405180910390a35050565b61134e61134861176c565b8361185a565b6113ac576040517f08c379a000000000000000000000000000000000000000000000000000000000815260040180806020018281038252603181526020018061346160319139604001915050604051809103906113a9612d43565b50505b6113b884848484611ebf565b50505050565b60606113c98261174f565b611427576040517f08c379a000000000000000000000000000000000000000000000000000000000815260040180806020018281038252602f815260200180613411602f913960400191505060405180910390611424612d43565b50505b60006008600084815260200190815260200160002080611445612db1565b600181600116156101000203166002900480601f01602080910402602001604051908101604052809291908181526020018280611480612db1565b600181600116156101000203166002900480156114ec5780601f106114ba5761010080836114ac612db1565b0402835291602001916114ec565b820191906000526020600020905b816114d1612db1565b815290600101906020018083116114c857829003601f168201915b5050505050905060006114fd610eb8565b90506000815114156115135781925050506116af565b6000825111156115e45780826040516020018083805190602001908083835b602083106115555780518252602082019150602081019050602083039250611532565b6001836020036101000a03801982511681845116808217855250505050505090500182805190602001908083835b602083106115a65780518252602082019150602081019050602083039250611583565b6001836020036101000a03801982511681845116808217855250505050505090500192505050604051602081830303815290604052925050506116af565b806115ee85611f3a565b6040516020018083805190602001908083835b602083106116245780518252602082019150602081019050602083039250611601565b6001836020036101000a03801982511681845116808217855250505050505090500182805190602001908083835b602083106116755780518252602082019150602081019050602083039250611652565b6001836020036101000a03801982511681845116808217855250505050505090500192505050604051602081830303815290604052925050505b919050565b6000600560008473ffffffffffffffffffffffffffffffffffffffff1673ffffffffffffffffffffffffffffffffffffffff16815260200190815260200160002060008373ffffffffffffffffffffffffffffffffffffffff1673ffffffffffffffffffffffffffffffffffffffff16815260200190815260200160002060009061173d612db1565b906101000a900460ff16905092915050565b600061176582600261208a90919063ffffffff16565b9050919050565b60005a611777612e79565b905090565b816004600083815260200190815260200160002060006101000a8161179f612db1565b8173ffffffffffffffffffffffffffffffffffffffff021916908373ffffffffffffffffffffffffffffffffffffffff160217906117db612e14565b505050808273ffffffffffffffffffffffffffffffffffffffff166117ff83610e81565b73ffffffffffffffffffffffffffffffffffffffff167f8c5be1e5ebec7d5bd14f71427d1e84f3dd0314c0f7b2291e5b200ac8c7c3b92560405160405180910390a45050565b6000611853826000016120a4565b9050919050565b60006118658261174f565b6118c3576040517f08c379a000000000000000000000000000000000000000000000000000000000815260040180806020018281038252602c8152602001806132b7602c9139604001915050604051809103906118c0612d43565b50505b60006118ce83610e81565b90508073ffffffffffffffffffffffffffffffffffffffff168473ffffffffffffffffffffffffffffffffffffffff16148061193d57508373ffffffffffffffffffffffffffffffffffffffff1661192584610b52565b73ffffffffffffffffffffffffffffffffffffffff16145b8061194e575061194d81856116b4565b5b91505092915050565b8273ffffffffffffffffffffffffffffffffffffffff1661197782610e81565b73ffffffffffffffffffffffffffffffffffffffff16146119ec576040517f08c379a00000000000000000000000000000000000000000000000000000000081526004018080602001828103825260298152602001806133e860299139604001915050604051809103906119e9612d43565b50505b600073ffffffffffffffffffffffffffffffffffffffff168273ffffffffffffffffffffffffffffffffffffffff161415611a7b576040517f08c379a000000000000000000000000000000000000000000000000000000000815260040180806020018281038252602481526020018061326d6024913960400191505060405180910390611a78612d43565b50505b611a868383836120bc565b611a9160008261177c565b611ae281600160008673ffffffffffffffffffffffffffffffffffffffff1673ffffffffffffffffffffffffffffffffffffffff1681526020019081526020016000206120c190919063ffffffff16565b50611b3481600160008573ffffffffffffffffffffffffffffffffffffffff1673ffffffffffffffffffffffffffffffffffffffff1681526020019081526020016000206120db90919063ffffffff16565b50611b4b818360026120f59092919063ffffffff16565b50808273ffffffffffffffffffffffffffffffffffffffff168473ffffffffffffffffffffffffffffffffffffffff167fddf252ad1be2c89b69c2b068fc378daa952ba7f163c4a11628f55a4df523b3ef60405160405180910390a4505050565b6000611bbb836000018361212a565b60001c905092915050565b600080600080611bd986600001866121cb565b915091508160001c8160001c9350935050509250929050565b6000611c05846000018460001b84612289565b60001c90509392505050565b6000611c1f8260000161239d565b9050919050565b600073ffffffffffffffffffffffffffffffffffffffff168273ffffffffffffffffffffffffffffffffffffffff161415611cd2576040517f08c379a00000000000000000000000000000000000000000000000000000000081526004018080602001828103825260208152602001807f4552433732313a206d696e7420746f20746865207a65726f206164647265737381525060200191505060405180910390611ccf612d43565b50505b611cdb8161174f565b15611d57576040517f08c379a000000000000000000000000000000000000000000000000000000000815260040180806020018281038252601c8152602001807f4552433732313a20746f6b656e20616c7265616479206d696e7465640000000081525060200191505060405180910390611d54612d43565b50505b611d63600083836120bc565b611db481600160008573ffffffffffffffffffffffffffffffffffffffff1673ffffffffffffffffffffffffffffffffffffffff1681526020019081526020016000206120db90919063ffffffff16565b50611dcb818360026120f59092919063ffffffff16565b50808273ffffffffffffffffffffffffffffffffffffffff16600073ffffffffffffffffffffffffffffffffffffffff167fddf252ad1be2c89b69c2b068fc378daa952ba7f163c4a11628f55a4df523b3ef60405160405180910390a45050565b611e358261174f565b611e93576040517f08c379a000000000000000000000000000000000000000000000000000000000815260040180806020018281038252602c8152602001806133bc602c913960400191505060405180910390611e90612d43565b50505b80600860008481526020019081526020016000209080519060200190611eba929190612ed6565b505050565b611eca848484611957565b611ed6848484846123b5565b611f34576040517f08c379a000000000000000000000000000000000000000000000000000000000815260040180806020018281038252603281526020018061323b6032913960400191505060405180910390611f31612d43565b50505b50505050565b60606000821415611f82576040518060400160405280600181526020017f30000000000000000000000000000000000000000000000000000000000000008152509050612085565b600082905060005b60008214611fac578080600101915050600a8281611fa457fe5b049150611f8a565b60008167ffffffffffffffff81118015611fce57600080611fcb612d43565b50505b506040519080825280601f01601f1916602001820160405280156120015781602001600182028036833780820191505090505b50905060006001830390508593505b6000841461207d57600a848161202257fe5b0660300160f81b8282806001900393508151811061203c57fe5b60200101907effffffffffffffffffffffffffffffffffffffffffffffffffffffffffffff1916908160001a905350600a848161207557fe5b049350612010565b819450505050505b919050565b600061209c836000018360001b6125d7565b905092915050565b600081600001806120b3612db1565b90509050919050565b505050565b60006120d3836000018360001b612601565b905092915050565b60006120ed836000018360001b612740565b905092915050565b6000612121846000018460001b8473ffffffffffffffffffffffffffffffffffffffff1660001b6127d9565b90509392505050565b600081836000018061213a612db1565b90501161219b576040517f08c379a00000000000000000000000000000000000000000000000000000000081526004018080602001828103825260228152602001806132196022913960400191505060405180910390612198612d43565b50505b8260000182816121a9612db1565b81106121b157fe5b906000526020600020016121c3612db1565b905092915050565b6000808284600001806121dc612db1565b90501161223d576040517f08c379a000000000000000000000000000000000000000000000000000000000815260040180806020018281038252602281526020018061336e602291396040019150506040518091039061223a612d43565b50505b600084600001848161224d612db1565b811061225557fe5b9060005260206000209060020201905080600001612271612db1565b8160010161227d612db1565b92509250509250929050565b6000808460010160008581526020019081526020016000206122a9612db1565b905060008114158390612360576040517f08c379a00000000000000000000000000000000000000000000000000000000081526004018080602001828103825283818151815260200191508051906020019080838360005b8381101561231c578082015181840152602081019050612301565b50505050905090810190601f1680156123495780820380516001836020036101000a031916815260200191505b50925050506040518091039061235d612d43565b50505b50846000016001820381612372612db1565b811061237a57fe5b9060005260206000209060020201600101612393612db1565b9150509392505050565b600081600001806123ac612db1565b90509050919050565b60006123d68473ffffffffffffffffffffffffffffffffffffffff166128fe565b6123e357600190506125cf565b600061254d63150b7a0260e01b6123f861176c565b888787604051602401808573ffffffffffffffffffffffffffffffffffffffff1681526020018473ffffffffffffffffffffffffffffffffffffffff16815260200183815260200180602001828103825283818151815260200191508051906020019080838360005b8381101561247c578082015181840152602081019050612461565b50505050905090810190601f1680156124a95780820380516001836020036101000a031916815260200191505b5095505050505050604051602081830303815290604052907bffffffffffffffffffffffffffffffffffffffffffffffffffffffff19166020820180517bffffffffffffffffffffffffffffffffffffffffffffffffffffffff838183161783525050505060405180606001604052806032815260200161323b603291398773ffffffffffffffffffffffffffffffffffffffff166129189092919063ffffffff16565b9050600081806020019051602081101561256f5760008061256c612d43565b50505b8101908080519060200190929190505050905063150b7a0260e01b7bffffffffffffffffffffffffffffffffffffffffffffffffffffffff1916817bffffffffffffffffffffffffffffffffffffffffffffffffffffffff191614925050505b949350505050565b6000808360010160008481526020019081526020016000206125f7612db1565b1415905092915050565b600080836001016000848152602001908152602001600020612621612db1565b905060008114612734576000600182039050600060018660000180612644612db1565b90500390506000866000018281612659612db1565b811061266157fe5b90600052602060002001612673612db1565b905080876000018481612684612db1565b811061268c57fe5b9060005260206000200181906126a0612e14565b5050506001830187600101600083815260200190815260200160002081906126c6612e14565b50505086600001806126d6612db1565b806126dd57fe5b600190038181906000526020600020016000906126f8612e14565b505090612703612e14565b5050866001016000878152602001908152602001600020600090612725612e14565b5050600194505050505061273a565b60009150505b92915050565b600061274c8383612930565b6127ce5782600001829080600181612762612db1565b01808261276d612e14565b5050809150506001900390600052602060002001600090919091909150612792612e14565b505082600001806127a1612db1565b905083600101600084815260200190815260200160002081906127c2612e14565b505050600190506127d3565b600090505b92915050565b6000808460010160008581526020019081526020016000206127f9612db1565b905060008114156128b95784600001604051806040016040528086815260200185815250908060018161282a612db1565b018082612835612e14565b505080915050600190039060005260206000209060020201600090919091909150600082015181600001612867612e14565b505060208201518160010161287a612e14565b50505050846000018061288b612db1565b905085600101600086815260200190815260200160002081906128ac612e14565b50505060019150506128f7565b828560000160018303816128cb612db1565b81106128d357fe5b906000526020600020906002020160010181906128ee612e14565b50505060009150505b9392505050565b6000808261290a612f8f565b905060008111915050919050565b6060612927848460008561295a565b90509392505050565b600080836001016000848152602001908152602001600020612950612db1565b1415905092915050565b60608273420000000000000000000000000000000000000673ffffffffffffffffffffffffffffffffffffffff166370a082315a63996d79a5598160e01b8152602081600483336000905af158600e01573d6000803e3d6000fd5b3d6001141558600a015760016000f35b8051925060005b60408110156129e6576000818301526020810190506129cc565b5050506040518263ffffffff1660e01b8152600401808273ffffffffffffffffffffffffffffffffffffffff1681526020019150506020604051808303818680612a2e612f8f565b158015612a4357600080612a40612d43565b50505b505a612a4d612ff2565b5050505050158015612a6c573d6000803e3d6000612a69612d43565b50505b505050506040513d6020811015612a8b57600080612a88612d43565b50505b81019080805190602001909291905050501015612afc576040517f08c379a00000000000000000000000000000000000000000000000000000000081526004018080602001828103825260268152602001806132916026913960400191505060405180910390612af9612d43565b50505b612b05856128fe565b612b80576040517f08c379a000000000000000000000000000000000000000000000000000000000815260040180806020018281038252601d8152602001807f416464726573733a2063616c6c20746f206e6f6e2d636f6e747261637400000081525060200191505060405180910390612b7d612d43565b50505b6000808673ffffffffffffffffffffffffffffffffffffffff1685876040518082805190602001908083835b60208310612bcf5780518252602082019150602081019050602083039250612bac565b6001836020036101000a03801982511681845116808217855250505050505090500191505060006040518083038185875a612c086130f2565b505050505050925050503d8060008114612c3e576040519150601f19603f3d011682016040523d82523d6000602084013e612c43565b606091505b5091509150612c53828286612c5f565b92505050949350505050565b60608315612c6f57829050612d3c565b600083511115612c905782518084602001612c88612d43565b505050612d3b565b816040517f08c379a00000000000000000000000000000000000000000000000000000000081526004018080602001828103825283818151815260200191508051906020019080838360005b83811015612cf7578082015181840152602081019050612cdc565b50505050905090810190601f168015612d245780820380516001836020036101000a031916815260200191505b509250505060405180910390612d38612d43565b50505b5b9392505050565b632a2a7adb598160e01b8152600481016020815285602082015260005b86811015612d7e578086015181604084010152602081019050612d60565b506020828760640184336000905af158600e01573d6000803e3d6000fd5b3d6001141558600a015760016000f35b505050565b6303daa959598160e01b8152836004820152602081602483336000905af158600e01573d6000803e3d6000fd5b3d6001141558600a015760016000f35b8051935060005b6040811015612e0f57600081830152602081019050612df5565b505050565b6322bd64c0598160e01b8152836004820152846024820152600081604483336000905af158600e01573d6000803e3d6000fd5b3d6001141558600a015760016000f35b60005b6040811015612e7457600081830152602081019050612e5a565b505050565b6373509064598160e01b8152602081600483336000905af158600e01573d6000803e3d6000fd5b3d6001141558600a015760016000f35b8051935060005b6040811015612ed157600081830152602081019050612eb7565b505050565b8280612ee0612db1565b600181600116156101000203166002900490600052602060002090601f016020900481019282612f1c57600085612f15612e14565b5050612f7e565b82601f10612f3e57805160ff19168380011785612f37612e14565b5050612f7e565b82800160010185612f4d612e14565b50508215612f7e579182015b82811115612f7d57825182612f6c612e14565b505091602001919060010190612f59565b5b509050612f8b91906131f2565b5090565b638435035b598160e01b8152836004820152602081602483336000905af158600e01573d6000803e3d6000fd5b3d6001141558600a015760016000f35b8051935060005b6040811015612fed57600081830152602081019050612fd3565b505050565b638540661f598160e01b8152613031565b600081905081831115613014578290505b92915050565b60008190508183101561302b578290505b92915050565b836004820152846024820152606060448201528660648201526084810160005b8881101561306c578088015181830152602081019050613051565b506060828960a40184336000905af158600e01573d6000803e3d6000fd5b3d6001141558600a015760016000f35b815160408301513d6000853e8b8b82606087013350600060045af150596130c18d3d61301a565b8c016130cd8187613003565b5b828110156130e557600081526020810190506130ce565b50839d5050505050505050565b6385979f76598160e01b8152613131565b600081905081831115613114578290505b92915050565b60008190508183101561312b578290505b92915050565b836004820152846024820152606060448201528760648201526084810160005b8981101561316c578089015181830152602081019050613151565b506060828a60a40184336000905af158600e01573d6000803e3d6000fd5b3d6001141558600a015760016000f35b815160408301513d6000853e8c8c82606087013350600060045af150596131c18e3d61311a565b8d016131cd8187613103565b5b828110156131e557600081526020810190506131ce565b50839e5050505050505050565b5b8082111561321457600081600090613209612e14565b5050506001016131f3565b509056fe456e756d657261626c655365743a20696e646578206f7574206f6620626f756e64734552433732313a207472616e7366657220746f206e6f6e20455243373231526563656976657220696d706c656d656e7465724552433732313a207472616e7366657220746f20746865207a65726f2061646472657373416464726573733a20696e73756666696369656e742062616c616e636520666f722063616c6c4552433732313a206f70657261746f7220717565727920666f72206e6f6e6578697374656e7420746f6b656e4552433732313a20617070726f76652063616c6c6572206973206e6f74206f776e6572206e6f7220617070726f76656420666f7220616c6c4552433732313a2062616c616e636520717565727920666f7220746865207a65726f20616464726573734552433732313a206f776e657220717565727920666f72206e6f6e6578697374656e7420746f6b656e456e756d657261626c654d61703a20696e646578206f7574206f6620626f756e64734552433732313a20617070726f76656420717565727920666f72206e6f6e6578697374656e7420746f6b656e4552433732314d657461646174613a2055524920736574206f66206e6f6e6578697374656e7420746f6b656e4552433732313a207472616e73666572206f6620746f6b656e2074686174206973206e6f74206f776e4552433732314d657461646174613a2055524920717565727920666f72206e6f6e6578697374656e7420746f6b656e4552433732313a20617070726f76616c20746f2063757272656e74206f776e65724552433732313a207472616e736665722063616c6c6572206973206e6f74206f776e6572206e6f7220617070726f766564",
	"devdoc": {
		"kind": "dev",
		"methods": {
			"approve(address,uint256)": {
				"details": "See {IERC721-approve}."
			},
			"balanceOf(address)": {
				"details": "See {IERC721-balanceOf}."
			},
			"baseURI()": {
				"details": "Returns the base URI set via {_setBaseURI}. This will be automatically added as a prefix in {tokenURI} to each token's URI, or to the token ID if no specific URI is set for that token ID."
			},
			"getApproved(uint256)": {
				"details": "See {IERC721-getApproved}."
			},
			"isApprovedForAll(address,address)": {
				"details": "See {IERC721-isApprovedForAll}."
			},
			"name()": {
				"details": "See {IERC721Metadata-name}."
			},
			"ownerOf(uint256)": {
				"details": "See {IERC721-ownerOf}."
			},
			"safeTransferFrom(address,address,uint256)": {
				"details": "See {IERC721-safeTransferFrom}."
			},
			"safeTransferFrom(address,address,uint256,bytes)": {
				"details": "See {IERC721-safeTransferFrom}."
			},
			"setApprovalForAll(address,bool)": {
				"details": "See {IERC721-setApprovalForAll}."
			},
			"supportsInterface(bytes4)": {
				"details": "See {IERC165-supportsInterface}. Time complexity O(1), guaranteed to always use less than 30 000 gas."
			},
			"symbol()": {
				"details": "See {IERC721Metadata-symbol}."
			},
			"tokenByIndex(uint256)": {
				"details": "See {IERC721Enumerable-tokenByIndex}."
			},
			"tokenOfOwnerByIndex(address,uint256)": {
				"details": "See {IERC721Enumerable-tokenOfOwnerByIndex}."
			},
			"tokenURI(uint256)": {
				"details": "See {IERC721Metadata-tokenURI}."
			},
			"totalSupply()": {
				"details": "See {IERC721Enumerable-totalSupply}."
			},
			"transferFrom(address,address,uint256)": {
				"details": "See {IERC721-transferFrom}."
			}
		},
		"version": 1
	},
	"userdoc": {
		"kind": "user",
		"methods": {},
		"version": 1
	},
	"storageLayout": {
		"storage": [
			{
				"astId": 58,
				"contract": "contracts/MetisERC721.sol:MetisERC721",
				"label": "_supportedInterfaces",
				"offset": 0,
				"slot": "0",
				"type": "t_mapping(t_bytes4,t_bool)"
			},
			{
				"astId": 592,
				"contract": "contracts/MetisERC721.sol:MetisERC721",
				"label": "_holderTokens",
				"offset": 0,
				"slot": "1",
				"type": "t_mapping(t_address,t_struct(UintSet)2967_storage)"
			},
			{
				"astId": 594,
				"contract": "contracts/MetisERC721.sol:MetisERC721",
				"label": "_tokenOwners",
				"offset": 0,
				"slot": "2",
				"type": "t_struct(UintToAddressMap)2344_storage"
			},
			{
				"astId": 598,
				"contract": "contracts/MetisERC721.sol:MetisERC721",
				"label": "_tokenApprovals",
				"offset": 0,
				"slot": "4",
				"type": "t_mapping(t_uint256,t_address)"
			},
			{
				"astId": 604,
				"contract": "contracts/MetisERC721.sol:MetisERC721",
				"label": "_operatorApprovals",
				"offset": 0,
				"slot": "5",
				"type": "t_mapping(t_address,t_mapping(t_address,t_bool))"
			},
			{
				"astId": 606,
				"contract": "contracts/MetisERC721.sol:MetisERC721",
				"label": "_name",
				"offset": 0,
				"slot": "6",
				"type": "t_string_storage"
			},
			{
				"astId": 608,
				"contract": "contracts/MetisERC721.sol:MetisERC721",
				"label": "_symbol",
				"offset": 0,
				"slot": "7",
				"type": "t_string_storage"
			},
			{
				"astId": 612,
				"contract": "contracts/MetisERC721.sol:MetisERC721",
				"label": "_tokenURIs",
				"offset": 0,
				"slot": "8",
				"type": "t_mapping(t_uint256,t_string_storage)"
			},
			{
				"astId": 614,
				"contract": "contracts/MetisERC721.sol:MetisERC721",
				"label": "_baseURI",
				"offset": 0,
				"slot": "9",
				"type": "t_string_storage"
			},
			{
				"astId": 6,
				"contract": "contracts/MetisERC721.sol:MetisERC721",
				"label": "_tokenIds",
				"offset": 0,
				"slot": "10",
				"type": "t_uint256"
			}
		],
		"types": {
			"t_address": {
				"encoding": "inplace",
				"label": "address",
				"numberOfBytes": "20"
			},
			"t_array(t_bytes32)dyn_storage": {
				"base": "t_bytes32",
				"encoding": "dynamic_array",
				"label": "bytes32[]",
				"numberOfBytes": "32"
			},
			"t_array(t_struct(MapEntry)2018_storage)dyn_storage": {
				"base": "t_struct(MapEntry)2018_storage",
				"encoding": "dynamic_array",
				"label": "struct EnumerableMap.MapEntry[]",
				"numberOfBytes": "32"
			},
			"t_bool": {
				"encoding": "inplace",
				"label": "bool",
				"numberOfBytes": "1"
			},
			"t_bytes32": {
				"encoding": "inplace",
				"label": "bytes32",
				"numberOfBytes": "32"
			},
			"t_bytes4": {
				"encoding": "inplace",
				"label": "bytes4",
				"numberOfBytes": "4"
			},
			"t_mapping(t_address,t_bool)": {
				"encoding": "mapping",
				"key": "t_address",
				"label": "mapping(address => bool)",
				"numberOfBytes": "32",
				"value": "t_bool"
			},
			"t_mapping(t_address,t_mapping(t_address,t_bool))": {
				"encoding": "mapping",
				"key": "t_address",
				"label": "mapping(address => mapping(address => bool))",
				"numberOfBytes": "32",
				"value": "t_mapping(t_address,t_bool)"
			},
			"t_mapping(t_address,t_struct(UintSet)2967_storage)": {
				"encoding": "mapping",
				"key": "t_address",
				"label": "mapping(address => struct EnumerableSet.UintSet)",
				"numberOfBytes": "32",
				"value": "t_struct(UintSet)2967_storage"
			},
			"t_mapping(t_bytes32,t_uint256)": {
				"encoding": "mapping",
				"key": "t_bytes32",
				"label": "mapping(bytes32 => uint256)",
				"numberOfBytes": "32",
				"value": "t_uint256"
			},
			"t_mapping(t_bytes4,t_bool)": {
				"encoding": "mapping",
				"key": "t_bytes4",
				"label": "mapping(bytes4 => bool)",
				"numberOfBytes": "32",
				"value": "t_bool"
			},
			"t_mapping(t_uint256,t_address)": {
				"encoding": "mapping",
				"key": "t_uint256",
				"label": "mapping(uint256 => address)",
				"numberOfBytes": "32",
				"value": "t_address"
			},
			"t_mapping(t_uint256,t_string_storage)": {
				"encoding": "mapping",
				"key": "t_uint256",
				"label": "mapping(uint256 => string)",
				"numberOfBytes": "32",
				"value": "t_string_storage"
			},
			"t_string_storage": {
				"encoding": "bytes",
				"label": "string",
				"numberOfBytes": "32"
			},
			"t_struct(Map)2026_storage": {
				"encoding": "inplace",
				"label": "struct EnumerableMap.Map",
				"members": [
					{
						"astId": 2021,
						"contract": "contracts/MetisERC721.sol:MetisERC721",
						"label": "_entries",
						"offset": 0,
						"slot": "0",
						"type": "t_array(t_struct(MapEntry)2018_storage)dyn_storage"
					},
					{
						"astId": 2025,
						"contract": "contracts/MetisERC721.sol:MetisERC721",
						"label": "_indexes",
						"offset": 0,
						"slot": "1",
						"type": "t_mapping(t_bytes32,t_uint256)"
					}
				],
				"numberOfBytes": "64"
			},
			"t_struct(MapEntry)2018_storage": {
				"encoding": "inplace",
				"label": "struct EnumerableMap.MapEntry",
				"members": [
					{
						"astId": 2015,
						"contract": "contracts/MetisERC721.sol:MetisERC721",
						"label": "_key",
						"offset": 0,
						"slot": "0",
						"type": "t_bytes32"
					},
					{
						"astId": 2017,
						"contract": "contracts/MetisERC721.sol:MetisERC721",
						"label": "_value",
						"offset": 0,
						"slot": "1",
						"type": "t_bytes32"
					}
				],
				"numberOfBytes": "64"
			},
			"t_struct(Set)2581_storage": {
				"encoding": "inplace",
				"label": "struct EnumerableSet.Set",
				"members": [
					{
						"astId": 2576,
						"contract": "contracts/MetisERC721.sol:MetisERC721",
						"label": "_values",
						"offset": 0,
						"slot": "0",
						"type": "t_array(t_bytes32)dyn_storage"
					},
					{
						"astId": 2580,
						"contract": "contracts/MetisERC721.sol:MetisERC721",
						"label": "_indexes",
						"offset": 0,
						"slot": "1",
						"type": "t_mapping(t_bytes32,t_uint256)"
					}
				],
				"numberOfBytes": "64"
			},
			"t_struct(UintSet)2967_storage": {
				"encoding": "inplace",
				"label": "struct EnumerableSet.UintSet",
				"members": [
					{
						"astId": 2966,
						"contract": "contracts/MetisERC721.sol:MetisERC721",
						"label": "_inner",
						"offset": 0,
						"slot": "0",
						"type": "t_struct(Set)2581_storage"
					}
				],
				"numberOfBytes": "64"
			},
			"t_struct(UintToAddressMap)2344_storage": {
				"encoding": "inplace",
				"label": "struct EnumerableMap.UintToAddressMap",
				"members": [
					{
						"astId": 2343,
						"contract": "contracts/MetisERC721.sol:MetisERC721",
						"label": "_inner",
						"offset": 0,
						"slot": "0",
						"type": "t_struct(Map)2026_storage"
					}
				],
				"numberOfBytes": "64"
			},
			"t_uint256": {
				"encoding": "inplace",
				"label": "uint256",
				"numberOfBytes": "32"
			}
		}
	}
}